:100000000C94B1040C94F8040C94F8040C94F804C7
:100010000C94F8040C94F8040C94F8040C94F80470
:100020000C94F8040C94F8040C94A2260C94DE258D
:100030000C94F31D0C94F8040C94F8040C94F8043C
:100040000C94F8040C94F8040C94F8040C94F80440
:100050000C94F8040C94B21D0C94F8040C94F8045D
:100060000C94F8040C94F8040C94F8040C94F80420
:100070000C94F8040C94F8040C94F8040C94F80410
:100080000C94F8040C94F8040C94F8040C94F80400
:100090000C94F8040C94F8040C94F8040C94F804F0
:1000A0000C94F8040C94F8040C94F804851485144A
:1000B000BD14BD14391555151917191762154B16AE
:1000C000581658169A1BB41BBB1B9A1C9A1CF31B80
:1000D000FF1B0E1C9A1C161C9A1C9A1C9A1C1E1C98
:1000E000B11FB11FC41FC41FBA1FC41FC41FC41F28
:1000F000B11FB11FBF1FC41FC41FBF1FE6230D24A4
:10010000C0250D24C02559247C24C0257D258D259E
:1001100000000000000000000000000000000000DF
:1001200000000000000000000000000000000000CF
:10013000000000007E0F00D4FFFFFFC70000007822
:1001400000000000000000002A2B28000000000032
:100150000000000000000000000000290000000076
:100160002C1E3420212224342627252E362D3738E4
:10017000271E1F202122232425263333362E3738ED
:100180001F0405060708090A0B0C0D0E0F101112AB
:10019000131415161718191A1B1C1D2F3130232D77
:1001A000350405060708090A0B0C0D0E0F10111275
:1001B000131415161718191A1B1C1D2F3130354C26
:1001C00029003A003C003E00400042004400490043
:1001D0004B0000003B003D003F0041004300450054
:1001E0004C004E0035001F00210023002500270091
:1001F0002E00530055001E0020002200240026007F
:100200002D002A00540056002B001A0015001C0077
:100210000C00130030005F0061001400080017009C
:10022000180012002F00310060005700390016003E
:1002300009000B000E00330032005C005E00040079
:1002400007000A000D000F00340028005D000000C8
:10025000E1001D000600050010003700E500590010
:100260005B0064001B0019001100360038005200CA
:100270005A005800E000E20000002C000000E400FA
:1002800050004F006300E300000000000000E600A3
:100290000151510062000000010001000100010055
:1002A00001000100010001004A00000001000100FE
:1002B000010001000100010001004D0001000100EA
:1002C0000100010001000100010001000100010026
:1002D0000100010001000100010001000100010016
:1002E000010001000100010046004800010001007A
:1002F00001000100010001000100470001000100B0
:1003000001000100010001000100010001000100E5
:1003100001000100010001000100010001000100D5
:1003200001000100010000000100010001000100C6
:1003300001000100010001000100010001000100B5
:1003400001000100010001000100010001000100A5
:100350000000010000006500010001000100010033
:100360000000000000000100010001000100000089
:100370000100010001000100010001000100010075
:100380000100000001000100010001000100010066
:100390000100010001000100010001000100010055
:1003A0000100010001000100010001000100010045
:1003B0000100010001000100010001000100010035
:1003C0000100010001000100010001000100010025
:1003D0000100010001000100010001000100010015
:1003E0000100010001000100010001000100010005
:1003F00001000100010001000100010001000000F6
:1004000001000100010001000100010001000100E4
:1004100001000100010001000100010001000100D4
:1004200001000100010001000000010000000100C6
:1004300001000100010001000000000000000100B7
:1004400001000100010000000100010001000100A5
:100450000100010001000100010000000100010095
:100460000100010001000100010001000100010084
:100470000100010001000100010001000100010074
:100480000100010001000100010001000100010064
:100490000100010001000100010001000100010054
:1004A0000100010001000100010001000100010044
:1004B0000100010001000100010001000100010034
:1004C0000100010001000100010001000100010024
:1004D0000100010001000000010001000100010015
:1004E0000100010001000100010001000100010004
:1004F00001000100010001000100010001000100F4
:1005000000000100000001000100010001000100E5
:1005100000000000000001000100010001000000D7
:10052000FD377A585A000004E6D6B446020021018D
:1005300016000000742FE5A3E0082502695D003D68
:100540008889C65436C3174FE4DDF90D50A142EF38
:100550006F6C1270A2E46473CC0930364C1D085DD8
:1005600080AB8E7605D836A51D60726E491B94D877
:1005700091BC61D973655D450B64C1C9D591C784D0
:100580005DFF636FC0897C9DF444C42CC58959F616
:10059000C7A3AFB1D1F781AB8E6AC768B179579F56
:1005A000F859ED52AD6C516F844B2D34A8E78E3C59
:1005B0008A3A868752B744853854ACC393186A0484
:1005C000CEB9B8A1924F28D3AF66C66C0F7387BE61
:1005D000FD1E61E846A8C4A5795F33A0B1771B244E
:1005E0002BCF2576F8A7EF8D6B2A849B8BD5C28FF6
:1005F000740E682C2C24BD4ABA2FE9CFC7B36263AE
:10060000DB3D5AD1CB1B04F72B3484DE064C6CEE59
:1006100035433ABC2F7B53654436AD84BEA20704F4
:100620009514F53D4C4B5A1BAE80228687CAE96E65
:100630006DE42895EEEA8C7087DFB50775E40C0948
:10064000F756E3EFC24B6B92E216D4E3A0935E50F1
:10065000F7E1B5F0850456E8A916B68605545FFCA7
:1006600054AE0B971061AF30C2BFF455A227B058FB
:1006700031ADCA2F4C4CBA5B51653FEAD344AE430F
:10068000B91658B08657FAC2FA0043A6D7BC43C37E
:100690004F7D71FF5D6585E59BA9E1F628C1286561
:1006A0001676D8431A3C542BD7C06ED1681F4FC85A
:1006B000ADA870E8ABD6A2771BC9DA4DB3938DB560
:1006C000E7388AF94B50683EBE8ABCC5EF16B906BA
:1006D00031AE81C5301F30FB2C422A85AA77C47603
:1006E0004AEDDF87F334FA9D691672C5676820B555
:1006F0008DC1B75FA817478D3BCAE698FF951D5877
:10070000225D5863F8996566A8ACDB19F8C08C3F88
:10071000B390F97529F203CFD40513FC272B2F6270
:10072000D2430973D548361CFEEF546C6C85E1AC9E
:100730002C7CA2E4059C15BABBB47E166B725AEBF6
:10074000A001E283E0B8996CBA594C694F93EA076B
:10075000BFDB6DE3D833615EA3B9F7EEB9E7C088BC
:10076000EBA190BDC2E0E26EC2D8F3C15B9B9F8E4D
:100770006D9570D0D0A36D47DEAB3115C8903603B0
:100780001AD9F1B50AE36FCCF06DB41D4B9DC3F9D6
:100790008846E151DF34F3D3C5AD870A2D06247FA7
:1007A0003AE4AE4093571FA4000000004D72EEFCE7
:1007B000ED6EA1C700018505A61000006F3BEE316C
:1007C000B1C467FB020000000004595A0501090288
:1007D000A10185020901A1000509190129051500DA
:1007E00025019505750181029501750381010501BA
:1007F000093009311581257F950275088106093870
:100800001581257F950175088106050C0A380215AA
:1008100081257F950175088106C0C005010980A169
:1008200001850319012AB700150126B70095017546
:10083000108100C0050C0901A101850419012AA03D
:1008400002150126A002950175108100C00660FF07
:100850000961A1010962150026FF00952075088134
:10086000020963150026FF00952075089102C00556
:10087000010906A101050719E029E71500250195E1
:100880000875018102950175088101050719002984
:10089000FF150026FF00950675088100050819015F
:1008A0002905950575019102950175039101C0090E
:1008B000025B00030100A0FA09040000010301012A
:1008C00000092111010001224000070581030800F1
:1008D0000A090401000203000000092111010001BE
:1008E00022220007058203200001070503032000E0
:1008F00001090402000103000000092111010001A7
:100900002281000705840320000A12011001000063
:1009100000080547F8AA0100010203011C03760044
:10092000690061006C003A00660036003400630024
:100930003200620033006300000012036E00740096
:100940003900380030002E0064006B0000000E03F8
:100950004500760079006400310033000000040394
:10096000090411241FBECFEFDAE0DEBFCDBF04B60D
:1009700003FE27C08091190390911A03A0911B03D5
:10098000B0911C038730904BA740B04BD1F410922C
:10099000190310921A0310921B0310921C0314BE29
:1009A00084B7877F84BF0FB6F894A89580916000C4
:1009B000886180936000109260000FBEE0E0F8E371
:1009C000099511E0A0E0B1E0EEEDF4E502C005907C
:1009D0000D92AC36B107D9F723E0ACE6B1E001C027
:1009E0001D92A931B207E1F70E945B170C946D2AA2
:1009F0000C9400009091060292FF0DC0282F2871E0
:100A0000283019F4877F846006C0282F2471243091
:100A100011F48B7F886093FF0DC0282F2871283137
:100A200019F4877E846106C0282F2471243111F4C3
:100A30008B7E88612091070220FF0DC0382F38710E
:100A4000383019F4877F816006C0382F317131301A
:100A500011F48E7F886021FF0DC0282F2871283166
:100A600019F4877E816106C0282F2171213111F48C
:100A70008E7E886194FD877E08959C013A952115AC
:100A80003F4138F5DC01AA27B270AC01442754700D
:100A90009C012227387094FF0FC090FF02C080E1B4
:100AA00001C080E0AB2B09F08062452B09F0806427
:100AB000232B69F080680BC0892F8170AB2B09F064
:100AC0008260452B09F08460232B09F08860FB01CC
:100AD00009940895CF92DF92FF920F931F93CF93C3
:100AE000DF93CDB7DEB767970FB6F894DEBF0FBEC2
:100AF000CDBFF42E4B8B052F5C8B162F6D8B7E8B11
:100B00008F8BCE88DF8861111092F502FE013D9631
:100B100086E0DF011D928A95E9F70E94E71D20918A
:100B2000F1023091F202821B930B8838934140F01E
:100B30008091F30282FB992790F981E0892701C017
:100B400080E080FF03C082E00E9454200E94E71DE5
:100B50002091F7023091F802821B930B8838934161
:100B600010F00E94BF1EFD860E871F87D98AC88A93
:100B700086E0FE013D96DE01179601900D928A9562
:100B8000E1F7CE0107960E94282181113EC086E040
:100B9000FE013796DE01119601900D928A95E1F7DC
:100BA000FF81E8856A857B856115710531F0EF3F2E
:100BB00031F481E0FF3F19F403C081E001C080E01F
:100BC00080FD23C02091780230E0C9010196877032
:100BD00099274091A90250E08417950779F1F9838C
:100BE000EA837D836C8396E0929FD001939FB00D42
:100BF0001124A758BD4FFE01319601900D929A9590
:100C0000E1F7809378020E94B22016E08091A90259
:100C1000909178028917F9F0189FC0011124875824
:100C20009D4F0E9428218823B1F08091A90290E075
:100C30000196877099278093A902E8CF0E94D72256
:100C4000109278021092A902E2E7F2E086E0DF015A
:100C50001D928A95E9F767960FB6F894DEBF0FBE2E
:100C6000CDBFDF91CF911F910F91FF90DF90CF907B
:100C7000089520918501309186012817390771F078
:100C80009093860180938501E0912002F0912102EA
:100C9000309721F00084F185E02D0994089520918A
:100CA0008301309184012817390771F090938401F2
:100CB00080938301E0912002F0912102309721F08E
:100CC0000680F781E02D09940895E0912002F091CB
:100CD0002102309721F00190F081E02D099480E00D
:100CE0000895CF93DF93EC0181E0898B9091F60218
:100CF0008F81892B8093F6029091F5028885892B4C
:100D00008093F5020E94D11EEA81FB81CE010696F6
:100D1000309729F06C897D89DF91CF910994DF911B
:100D2000CF910895EF92FF920F931F93CF93DF938C
:100D3000FC01228521113AC0EC01E380F480F7E543
:100D4000FF1A26E12E9DC0012F9D900D1124DC017C
:100D5000A757BE4F1496ED91FC91159781579E4F62
:100D6000309729F054966D917C915597099586E1BD
:100D70008E9D80018F9D100D112407571E4FF80185
:100D800087810E94CA1EF801808580959091F502A6
:100D900089238093F5020E94D11E188219861B8632
:100DA0001E821D821092880110928701DF91CF91DF
:100DB0001F910F91FF90EF900895E7EFF1E080E031
:100DC00090E08330910531F0248127FF1482019651
:100DD0003596F7CF9093F4018093F30108950F9324
:100DE0001F93CF93DF93C42FD22FFC0182818823DE
:100DF000C9F04093F5010E94E71D90938201809312
:100E0000810180E28C0F883008F057C0C77081E004
:100E100001C0880FCA95EAF7DF91CF911F910F911A
:100E20000C94EB278091F501481330C0809181012B
:100E3000909182010E94D81D883C910538F510E2FE
:100E40001D0FCD17B9F080E28C0F883040F4C770C9
:100E500081E001C0880FCA95EAF70E94F527183093
:100E600028F581E09D2F977001C0880F9A95EAF7C9
:100E70000E94EB27802F0E9400291830F0F4D770D1
:100E800081E001C0880FDA95EAF70AC080E28C0F92
:100E9000883098F4C77081E001C0880FCA95EAF7DE
:100EA000DF91CF911F910F910C94F527802FDF9147
:100EB000CF911F910F910C940029DF91CF911F9139
:100EC0000F910895CF93DF93C5EFD2E060E0CE019C
:100ED0000E94F5292196C11584E0D807B9F7DF9162
:100EE000CF910895833080F49B01982F8AE0989FDA
:100EF000B001112469527D4F4AE050E0C9010E94BF
:100F0000D72980E090E008958FEF9FEF0895843017
:100F100080F49B01982F8AE0989FB00111246155BD
:100F20007D4F4AE050E0C9010E94D72980E090E05F
:100F300008958FEF9FEF08950F931F93CF93DF9343
:100F4000833058F56C3048F5493038F521159CE56B
:100F5000390731F4E0910201F0910301EF2BE9F040
:100F60008901C42FD0E0CC0FDD1F92E1699FC00D35
:100F7000D11D112498ED899FC00DD11D1124612F21
:100F8000CE0187960E94F529602FCE018896DF91C9
:100F9000CF911F910F910C94F529DF91CF911F9163
:100FA0000F9108956F927F928F929F92AF92BF920E
:100FB000CF92DF92EF92FF920F931F93CF93DF9325
:100FC000CDB7DEB764970FB6F894DEBF0FBECDBFC6
:100FD000A0900201B090030181E090E090930301A2
:100FE00080930201612CC12CD12C712CE12CF12CAD
:100FF00000E010E046018E0C9F1CF801EE0FFF1F71
:10100000E80DF91DE054FE4F25913491402F672DD6
:10101000862D0E949C070F5F1F4F0930110569F74D
:1010200082E1E80EF11C7394ECE07E12E1CFF8ED62
:10103000CF0ED11C639483E06812D7CF1A82198235
:101040001C821B821E821D8218861F8288EC90E003
:101050009A8789870FEA12E04AE050E0B801CE0192
:1010600001960E94192A065F1F4F073DE2E01E0706
:1010700099F78E01055F1F4F8AE0F80111928A955A
:10108000E9F74AE050E067ED72E0C8010E94192AD2
:101090004AE050E061EE72E0C8010E94192A4AE07D
:1010A00050E06BEE72E0C8010E94192AB092030171
:1010B000A092020164960FB6F894DEBF0FBECDBFBA
:1010C000DF91CF911F910F91FF90EF90DF90CF9024
:1010D000BF90AF909F908F907F906F9008950F93E7
:1010E0001F93CF93DF93833008F56C30F8F44930C9
:1010F000E8F4C42FD0E0CC0FDD1F22E1629FC00DC9
:10110000D11D112438ED839FC00DD11D1124CE01B6
:1011100087960E94E72990E0182F0027CE01889635
:101120000E94E7299801282BC90102C080E090E0C5
:10113000DF91CF911F910F910895462F2091670263
:1011400030916802232B91F47E3F39F46E3F71F4A5
:1011500080917F01909180010895833038F47C3034
:1011600028F4693018F4672F0C946F0880E090E041
:1011700008958F929F92AF92BF92CF92DF92EF929B
:10118000FF920F931F93CF93DF93CDB7DEB72A97CC
:101190000FB6F894DEBF0FBECDBF09E811E0E12C19
:1011A000F12C8AEEC82E8EE0D82E95E1A92E9FE074
:1011B000B92E28E1822E2DE0922EF801D182C08234
:1011C000B382A28295828482F58AE48ABE016F5F2F
:1011D0007F4F8E2D0E948707892B29F489859A8558
:1011E000F801938B828BFFEFEF1AFF0A0A5E1F4F05
:1011F00084E0E816F10409F72A960FB6F894DEBFEA
:101200000FBECDBFDF91CF911F910F91FF90EF9057
:10121000DF90CF90BF90AF909F908F9008950E94E5
:10122000E71D20912B02211104C020912C022223C2
:1012300021F0909328028093270220912D02211102
:1012400004C020912E02222321F090932502809346
:101250002402E0912002F0912102309749F082E0CF
:10126000809329020480F581E02D89E292E00994BF
:101270000895803F39F480912C0287FF6AC0109254
:101280002C0267C0813F29F480912C021816BCF310
:1012900060C090912B02823F29F497FF5AC01092B0
:1012A0002B0257C0833F19F41916CCF352C090910A
:1012B0002D02893F31F419160CF04BC010922D020B
:1012C00048C08A3F19F497FF44C0F8CF8B3F39F4E8
:1012D00080912E0287FF3DC010922E023AC08C3FB3
:1012E00029F480912E021816BCF333C0843F21F4F8
:1012F00080912A028E7F17C0853F21F480912A02B7
:101300008D7F11C0863F21F480912A028B7F0BC014
:10131000873F21F480912A02877F05C0883F31F4FE
:1013200080912A028F7E80932A0213C08D3F21F480
:10133000809171028E7F0BC08E3F21F480917102EB
:101340008D7F05C08F3F29F4809171028B7F809340
:10135000710280912B02811106C080912C028111B3
:1013600002C01092260280912D02811106C0809148
:101370002E02811102C01092230208958091710201
:1013800080FD16C081FD16C082FD18C08091230229
:10139000882391F0883290F428E0829FC0011124C4
:1013A00068E270E00E94312A862F672B29F007C07F
:1013B00082E0089584E0089581E0089588E008952A
:1013C0008091710280FD14C081FD14C082FD16C0A1
:1013D00080912602882381F0843180F422E3829F69
:1013E000C001112464E170E00E94312A862F089523
:1013F0008CE0089589E1089585E0089582E30895D9
:10140000803F21F40E94E009819504C0813F29F4C6
:101410000E94E00980932C020895823F21F40E94EB
:10142000E009819504C0833F29F40E94E00980937C
:101430002B020895893F19F40E94BE0905C08A3F16
:1014400031F40E94BE09819580932D0208958B3F4F
:1014500021F40E94BE09819504C08C3F29F40E94AA
:10146000BE0980932E020895843F21F480912A02C0
:10147000816017C0853F21F480912A02826011C0EB
:10148000863F21F480912A0284600BC0873F21F4BB
:1014900080912A02886005C0883F31F480912A0239
:1014A000806180932A0208958D3F21F4809171021A
:1014B00081600BC08E3F21F480917102826005C073
:1014C0008F3F29F4809171028460809371020895A6
:1014D000F894E82FE295EF70F0E031A1282F2F70FB
:1014E00081E090E001C0880F2A95EAF7982F909547
:1014F000932391A392A1892B82A378940895CF93EB
:10150000DF930E949D08EC018238910559F1A0F407
:101510008133910509F473C040F48932910509F4CF
:1015200067C08A9709F472C084C08533910509F4B5
:1015300058C0C997B9F07DC0833E910571F138F468
:10154000803E9105B1F0823E910511F172C0863E58
:101550009105B9F1873E9105C9F1843E910509F0E5
:1015600068C024C08091060280FD5DC081FD5BC023
:1015700060C08091060280FD50C08091070280FF0C
:1015800049C18091060284FD43C1C3EED0E042C14F
:101590008091060282FF3EC1F4CF8091060282FD57
:1015A0003FC08091070280FD3EC0EBCF80910702D3
:1015B00081FF30C18091060284FD2AC1C7EED0E0D0
:1015C00029C18091060283FF25C1F4CF80910602D4
:1015D00083FD2CC08091070281FFECCFC4EED0E0E8
:1015E00019C18091060285FF15C1C9E2D0E012C180
:1015F0008091060285FF0EC1C5E3D0E00BC180914A
:10160000060286FF07C1CAE2D0E004C1809106024B
:1016100086FF00C1C1E3D0E0FDC0C9E3D0E0FAC05D
:10162000C2EED0E0F7C0C0EED0E0F4C0C6EED0E02D
:10163000F1C0C11581E5D80708F066C0C11520E5E5
:10164000D207E0F0CE0174E0969587957A95E1F7A0
:1016500083709C2F937021E030E002C0220F331F73
:101660009A95E2F73C68382BCF70C695C69540E254
:10167000C49FE0011124C22BD32BCCC0C83ED1059E
:1016800060F5C03ED10508F0C5C0C83AD105B0F438
:10169000C53AD10540F0C55AD0E0C55CDE4FC881DF
:1016A000D0E0D064B7C0C130D10509F4B3C008F4AC
:1016B000AFC0C430D10508F4ABC0ACC0CF3BD1053E
:1016C00008F0A6C0C85AD0E0CC0FDD1FC25CDE4FC8
:1016D0000990D881C02DD4649DC0C11540E2D407C3
:1016E00058F4C11581E0D80708F094C0C03FD10577
:1016F00008F48EC0D0658EC0C11520E4D20708F46E
:1017000087C0DF70D06A86C0C11545E5D40708F0F0
:1017100042C0C11584E5D80728F0DC2FCC27C46F60
:10172000D06A78C0C11523E5D207B0F0CE0183702E
:10173000992721E030E002C0220F331F8A95E2F79B
:101740008C2F8695869540E2849FC0011124E90183
:10175000C82BD92BDA685EC0C11542E5D40728F43E
:10176000DC2FCC27C16FD06A55C0CE01837099277A
:1017700021E030E002C0220F331F8A95E2F78C2F60
:101780008695869540E2849FC0011124E901C82B0B
:10179000D92BDC683FC0C11589E5D807B8F4C1155D
:1017A00028E5D20728F0DC2FCC27C06FD06A32C0E2
:1017B000C11546E5D40760F58C2F0E94FA048F719D
:1017C000C82FD0E0DC2FCC27D06224C0C1158AE519
:1017D000D80780F48C2F8F700E94FA0494E0D6957D
:1017E000C7959A95E1F7CF70D0E0DC2FCC27D06970
:1017F000C82B10C0CE0190568115904248F48D2F11
:101800008F710E94FA04DD27D0628F71D82B02C03D
:10181000C0E0D0E0CE01DF91CF910895809580FFA8
:1018200002C02A9A01C02A9881FF02C02B9A01C0E7
:101830002B9882FF02C02F9A08952F980895AF9297
:10184000BF92CF92DF92EF92FF920F931F93CF93AD
:10185000DF93EC018AE0A82E2881222309F497C0A7
:10186000213009F041C08981813039F48E010E5F49
:101870001F4F8A810E94002908C0823041F48E01E6
:101880000E5F1F4F8A810E945C28E8017EC0833072
:1018900039F48E010E5F1F4F8A810E94FC27F5CF1D
:1018A000843011F0219671C02A81229680E090E068
:1018B00030E0205331092A30310558F4A89EA001A8
:1018C000A99E500D1124C901840F951F21962881CE
:1018D000EFCF009709F459C0EFE9FFE03197F1F736
:1018E00000C000000197F5CFE22FF0E0E05CFE4F72
:1018F000B490822F86958695869590E0FC01E05DF8
:10190000FE4FE4902770F12C022E02C0F594E7946C
:101910000A94E2F7F1E0EF22FF24FC01E05EFE4FC3
:10192000C490D12C022E02C0D594C7940A94E2F739
:1019300031E0C322DD24FC01E05FFE4F049110E0A2
:1019400002C0159507952A95E2F701701127E11459
:10195000F10419F081EE0E945C28C114D10419F041
:1019600086EE0E945C288B2D0E940029CD2819F05C
:1019700086EE0E94FC27EF2819F081EE0E94FC27DA
:10198000012B19F08CE20E940029219665CFDF918E
:10199000CF911F910F91FF90EF90DF90CF90BF906C
:1019A000AF900895CF93DF93EC010E94FC27CE0106
:1019B000805E9109089710F0209719F465EF77E29F
:1019C00002C066ED77E2CE01DF91CF910C943D0528
:1019D000CF93DF9300D000D01F92CDB7DEB79093A6
:1019E000800180937F01811520E2920748F40F90D7
:1019F0000F900F900F900F90DF91CF910C94D20C1D
:101A00008EEF89838A831B820E94E71D8160782F75
:101A10009D838C8349815A816B818D810E946A05E7
:101A20000F900F900F900F900F90DF91CF9108952E
:101A30000F931F93CF93DF938C01EB0165E771E068
:101A40008C2F0E948707892B09F046C08FE39CE901
:101A50000197F1F700C00000DD27CF58DE4F8881E5
:101A6000F80110821882833079F048F4813041F116
:101A7000823091F5809177019091780109C084308E
:101A800051F08530E9F028C08091790190917A0178
:101A90000097B1F01BC080917B0190917C01009771
:101AA000A9F4209175013091760180917701909190
:101AB00078012115310541F0009741F4C90106C0B4
:101AC0008091750190917601009731F0DF91CF916F
:101AD0001F910F910C94E80CDF91CF911F910F9102
:101AE0000895CF93DF93EC01805E9109089710F081
:101AF000209719F46BEE77E202C061EE77E2CE0137
:101B00000E943D058C2FDF91CF910C945C28CF93E0
:101B10009091EF019923C9F0882311F0C0E003C030
:101B20001092EF0112C08091EF01C817C8F7EC2F97
:101B3000F0E0EE0FFF1FEF51FE4F808191810E9478
:101B4000710D0E94D11ECF5FEECFCF9108957F928D
:101B50008F929F92AF92BF92CF92DF92EF92FF92BD
:101B60000F931F93CF93DF9307E111E028E0C22E7C
:101B700022E0D22E30E2A32E32E0B32EE601712C09
:101B800088248394912CB801D8018C91F894E82F83
:101B9000E295EF70F0E021A18F70A40102C0440F24
:101BA000551F8A95E2F7CA01922F982B91A392A113
:101BB0008095892382A3789400C0E3E2F1E020E0DD
:101BC00030E0E12CF12C4191842F82958F7090E0D0
:101BD000DC0190968C9190E04F7002C095958795AE
:101BE0004A95E2F780FD08C0C401022E02C0880FAA
:101BF000991F0A94E2F702C080E090E0E82AF92AEF
:101C00002F5F3F4F29303105F1F60F5F1F4FFB016A
:101C100080810E94680AF0EAFA95F1F7888199813B
:101C2000E816F90621F0F982E88281E001C080E03F
:101C3000782A2296AC16BD0609F0A5CF772049F088
:101C400081E0809370010E94E71D90936F01809363
:101C50006E01809170018823A9F080916E019091AE
:101C60006F010E94D81D069768F0EBE4F2E0D60100
:101C70008D919D916D0181939193AA16BB06B9F741
:101C800010927001809100018F3F41F1F12C96E19B
:101C9000E92E1AC0E09EF001E19EF00D1124E757F5
:101CA000FE4FC288D388C114D10419F488ECC82E21
:101CB000D12CE09EE001E19ED00D1124C757DE4FEC
:101CC0008E81811110C0F3940F2D10E080910001DE
:101CD000082E000C990B80179107E4F68091010102
:101CE000811118C027C08D859E850E94D81DC816F9
:101CF000D90648F78989811103C0CE010E94710677
:101D0000E09EC001E19E900D112481579E4F0E94DC
:101D10009206D9CF8091F0019091F101009751F096
:101D20000E94D81D893C910528F081E00E94870D12
:101D30000E94DD06872DDF91CF911F910F91FF90BB
:101D4000EF90DF90CF90BF90AF909F908F907F905B
:101D50000895CF93DF9300D000D01F92CDB7DEB7A8
:101D60009093800180937F01811520E2920748F4CF
:101D70000F900F900F900F900F90DF91CF910C94D8
:101D8000710D8EEF89838A8381E08B830E94E71D2A
:101D90008160782F9D838C8349815A816B818D81ED
:101DA0000E946A050F900F900F900F900F90DF9197
:101DB000CF910895CF93DF93EC010E94A90E8FE39A
:101DC0009CE90197F1F700C00000CE01DF91CF91AF
:101DD0000C94E80C0F931F93CF93DF938C01862F05
:101DE00065E771E00E948707892BD1F4C0917501E6
:101DF000D09176012097A1F0F8018081833039F4E9
:101E0000CE010E94DA0ECE010E94DA0E02C08430AA
:101E100038F0CE01DF91CF911F910F910C94DA0E23
:101E2000DF91CF911F910F9108950F931F93CF933F
:101E3000DF938C01EB0165E771E08C2F0E9487072F
:101E4000892B09F06DC0DD27F8018081813041F4D4
:101E50009185911115C09285992391F082E010C06F
:101E6000823049F4F8018185811107C08285811192
:101E700006C083E005C086E003C085E001C084E0C1
:101E8000CF58DE4F88838330B1F028F4813071F071
:101E9000823031F045C08430A9F0853079F140C0FE
:101EA00080917701909178010097A1F5809175015B
:101EB0009091760120C08091790190917A010097EC
:101EC000E9F028C080917B0190917C01009711F589
:101ED0008091750190917601009749F00E94DA0E89
:101EE0008091770190917801009781F013C08091E3
:101EF000770190917801009799F00CC0809175015D
:101F000090917601009761F00E94DA0E8091750140
:101F100090917601DF91CF911F910F910C94A90EB2
:101F2000DF91CF911F910F9108952F923F924F9281
:101F30005F926F927F928F929F92AF92BF92CF9259
:101F4000DF92EF92FF920F931F93CF93DF93CDB762
:101F5000DEB769970FB6F894DEBF0FBECDBFFC01A8
:101F60008081918123813481232B31F09F3F31F493
:101F700091E08F3F19F403C091E001C090E090FD23
:101F800081C76F0185E0DE01559601900D928A951B
:101F9000E1F7D60112962C918D899E89222349F072
:101FA0000E94521F182F682F8D899E890E94F81F4A
:101FB00003C00E94C81F182F6D897E89812F0E943F
:101FC0009D088C01F6018281811106C0D60112960E
:101FD0004C91411141C0C1C0809100018F3FB1F3CC
:101FE00069E8E62E61E0F62EA12CB12C9924939499
:101FF00080910001082E000C990B8A159B0534F383
:10200000F7018681882309F18185928508171907D0
:1020100039F4809187019091880108171907A9F078
:10202000D7011F969C921F971C961C930E931B978B
:1020300051968C91811103C0C7010E947106C7019E
:1020400006960E9492061092F502BFEFAB1ABB0AE9
:10205000E6E1EE0EF11CCCCFC80182519F454097BE
:1020600008F094C08FEF93E00E94E72981117FC0B0
:102070005EEEF52EF00E05EF12E0FF2071F0011577
:10208000F4E01F0709F473C0C8010E94E729811119
:1020900001C0FA940F5F1F4FF0CF19821A821B8282
:1020A0001C82AA24AA9478012FEFE21AF20AC8012E
:1020B0000E94E72989831A82882309F458C0813055
:1020C00009F046C0480132E0830E911CC7010E940E
:1020D000E7298A83882309F44AC09FEF980F933039
:1020E00060F4780143E0E40EF11CC4010E94E7298A
:1020F0008B8381112DC08701D6CF843011F07401FC
:10210000FACFC4010E94E729B82E780154E0E50E09
:10211000F11CC80103960E94E729BB2041F18823E6
:1021200031F1282F30E021503109A29EA001A39E59
:10213000500D11248B2D90E00197840F951F01976E
:10214000D0F2AFE9BFE01197F1F700C00000F7CF80
:10215000CE0101960E941F0CCECF0031FFE51F0774
:1021600009F087C681E00E942F200E94E222809120
:10217000F302877009F486C6D60112968C918823E3
:1021800009F480C682E00E9454207CC60031BFE57D
:102190001B0711F481E005C00131EFE51E0721F4B2
:1021A00082E00E947120E1CFC80197558F3F9105D1
:1021B00011F008F04AC020910001022E000C330BF0
:1021C0002817390714F48093000126E1289F500155
:1021D000299FB00C1124F501E757FE4F7F01408B7A
:1021E000D60112969C918681992329F11287018745
:1021F0008F5F86830E94E71DF70196878587809110
:10220000F90287839091F5028091F602892B8087ED
:102210000190F081E02DC50181579E4F309731F03C
:10222000D70154966D917C9155970995109388012B
:10223000009387010AC0882341F08189882329F00F
:10224000C50181579E4F0E949206073FFCE51F077C
:1022500049F4D60112968C91882321F181E0809374
:10226000010187C1083FBCE51B0771F4F6018281BB
:102270008823C1F0109201011092F1011092F00137
:1022800081E00E94870D75C1093FFCE51F0751F4ED
:10229000D60112968C91882329F080910101882320
:1022A000E9F2E8CF8090010181102DC0033FBCE529
:1022B0001B0709F443C1A8F4083DFCE51F0709F416
:1022C00037C1093D2CE5120709F44AC1073D3CE539
:1022D000130709F04EC106E221EE41EE67ED7CE501
:1022E00044C1053F4CE5140709F434C108F42CC17E
:1022F000063F8CE5180709F03CC107E225EE46EEE3
:1023000066EF7CE532C11092F4011092F301512C7A
:1023100035E0432E66246394712C33243394A090CB
:10232000F301B090F401F3E0AF16B10408F0CCC0B3
:102330004A9CF0014B9CF00D1124E950FE4FBE0168
:10234000655F7F4F80810E947207892B11F0912C6D
:10235000B0C0FE013B9680E090E022242A94282F12
:10236000419151914115510551F00417150709F498
:10237000282E01968430910591F724E002C0823026
:1023800030F39FEF291619F3D60112969C909920ED
:1023900009F444C04A9CC0014B9C900D1124FC01DF
:1023A000E950FE4F7F01C30101C0880F2A94EAF76C
:1023B0009481892B8483A30102C0440F551F2A9561
:1023C000E2F79A012150310990E08F7728173907F9
:1023D00009F06EC080E00E94870DD70114968C91A1
:1023E0001497806814968C93149712968D919C91F3
:1023F0001397009719F00E94710D0DC0BE016F5F19
:102400007F4F8091F3010E947207892B21F4898507
:102410009A850E94A90E3092F2014BC0F30102C0CE
:10242000EE0FFF1F2A95E2F79F01215031094A9CC8
:10243000F0014B9CF00D1124E950FE4F848190E097
:102440008F7728173907A1F482819381009719F0BB
:102450000E94D20C0DC0BE016F5F7F4F8091F301CF
:102460000E947207892B21F489859A850E94E80CC5
:102470004A9CF0014B9CF00D1124E950FE4F9481D1
:10248000292F30E0022C02C0359527950A94E2F7F7
:1024900020FF5DCF930101C0220F2A94EAF7822F1B
:1024A00080958923848387FF52CF803809F4148272
:1024B000982C59288091F3019091F4010196909302
:1024C000F4018093F3012BCF8091F201882359F01E
:1024D0000E94E71D9093F1018093F0011092F201A8
:1024E000511045CEE3CE511006C081E00E94870D09
:1024F0000E94DD06DBCED60112968C91882309F46A
:1025000036CE0E94E71D9093F1018093F001E09197
:10251000EF01E73008F02BCE81E08E0F8093EF01C2
:10252000F0E0EE0FFF1FEF51FE4F118300831FCE2F
:1025300007E225EE45EE68ED7CE517C006E221EEE8
:1025400040EE63EF7CE511C007E225EE44EE64EF58
:102550007CE50BC006E221EE42EE65EF7CE505C0AE
:1025600008E221E045EE69ED7CE5C6010E94EF0638
:10257000FECDF6018281882309F43EC11092F50157
:102580000230FCE51F0708F421C106312CE51207D3
:1025900030F0C8018A5F9C45099708F017C10E9476
:1025A000431E909307028093060200313CE5130717
:1025B00009F4C3C008F041C008305CE5150709F410
:1025C0009AC0F0F404309CE5190709F487C068F458
:1025D0000230BCE51B0709F477C003301C4509F045
:1025E000E5C080910602826076C00630FCE51F07D8
:1025F00009F46EC008F07BC08091060288606BC051
:102600000C303CE5130709F485C068F40A305CE53A
:10261000150709F474C008F079C00E94D722809190
:102620000602806858C00E309CE5190709F476C090
:1026300008F07FC0809106028BC00B3FBCE51B07F2
:1026400009F44FC018F50331FCE51F0709F47DC0FC
:1026500078F401313CE5130709F473C002311C45DD
:1026600009F0A4C00E94D722809106028F7733C060
:1026700005315CE5150709F472C008F486C00A3F0D
:102680001C4509F093C0809107023EC00F3FACE5A6
:102690001A0709F45FC058F40D3FECE51E0709F472
:1026A00044C008F43FC08091070282602DC0013011
:1026B0002DE5120709F475C008F45DC002301D4510
:1026C00009F074C060E06EC080910602816003C0B2
:1026D0008091060280618093060268C080910602A4
:1026E00011C0809107028260809307025FC08091D1
:1026F00006028062F0CF809106028064ECCF809168
:10270000060288608460E7CF8160EECF8091060288
:102710008E7FE1CF809106028D7FDDCF8091060212
:10272000877FD9CF8091070218C0809107028D7FE3
:10273000DBCF809106028F7ECECF809106028F7D07
:10274000CACF809106028F7BC6CF80910602877F19
:102750008B7FC1CF809107028D7F8E7FC5CF809107
:10276000060282FB222720F991E0922790FB82F952
:1027700090FB83F9B0CF80910702982F90959170CC
:102780008E7F892B90FB81F9AFCF0E94D722809159
:10279000060287FB222720F991E0922790FB87F918
:1027A0009ACF61E08EE090E00E94F52960910602E8
:1027B0001091070284E090E00E94F529612F82E2E7
:1027C00090E00E94F5290E94D722D1CC0631FCE589
:1027D0001F0711F58091F6028A7A91E009F490E0E2
:1027E0009093F601882311F065E301C069E289E660
:1027F00092E00E94291E0DC006311C45F1F5809122
:10280000F601882309F43CC365E389E692E00E945F
:102810001C1E0E94D11EABCC0A355DE5150741F1A7
:1028200050F401159CE51907A9F00E3D1C4529F54A
:102830000E94541E9CCC0B35BDE51B07D9F00C350E
:102840001D45D9F48091070282FB882780F991E029
:10285000892711C00E94D722FFEF04E31CE0F1504A
:1028600000401040E1F700C000000E948E1D7FCCA8
:1028700081E001C080E00E942B1FD60112968C914E
:1028800012970D911C91882349F0C8010E94521F94
:10289000F82E682FC8010E94F81F04C0C8010E94CA
:1028A000C81FF82EB8018F2D0E947F0A8C01982E28
:1028B000F601E280F580F2949FE0F9228091F30224
:1028C000877099F0EE2089F0812F807F803421F08D
:1028D00080E2800F883048F082E00E94542080918E
:1028E000F3028770BB24B3948111B12CA12EA29462
:1028F0008FE0A8228A2D90E08C30910508F099C2D3
:10290000FC01EA5AFF4F0C94452A812F807F1F70EB
:10291000882311F01295107FEE20B9F0112309F4ED
:1029200063C280E2800F883010F0911006C0809161
:10293000F602182B1093F60205C08091F502182BB1
:102940001093F5020E94D11E4FC2802F0E94FC27D7
:10295000112309F46EC2005E083010F0911004C01B
:10296000812F0E94CA1E06C010958091F50218237F
:102970001093F5020E94D11E5CC2812F807F1F70D0
:10298000803211F01295107F992029F0F1E09F1606
:1029900009F443C04EC0EE2051F1FF2011F101E0D7
:1029A000F01213C08091070282FD43C28091F902A8
:1029B000182B181709F43DC20E94E71D9093F802E6
:1029C0008093F7021093F90234C225E0F21209C095
:1029D0000E94BF1E8091F0021817C1F11093F002FF
:1029E00035C08091F902812B0E94EB2722C2FF2083
:1029F00051F031E0F3120DC08091F602812309F409
:102A000018C20E944C1F0E94BF1E812F0E94F527F2
:102A100010C245E0F412F7CF0CC2EE2029F055E0C9
:102A20005F1508F406C212C084E08F1508F401C2D5
:102A3000ECCFEE2069F0FF2049F0D60115968C917D
:102A4000159780FFD1C18F7015968C93812FCCCFB5
:102A5000FF20D9F2093341F4BFEFE7EEF3E0B150C4
:102A6000E040F040E1F7D9C18FE39CE90197F1F72D
:102A7000D4C1812F86958695837019F0813059F0E5
:102A8000D8C1EE2019F0C801937002C080E090E038
:102A90000E944F06CEC1EE2019F0C801937002C00B
:102AA00080E090E00E943906C4C1802FEE2029F01A
:102AB0000E94000A0E940F0902C00E9439090E9468
:102AC0000F09B7C1812F837009F070C0E110B1C147
:102AD000202F229526952770220F220F602F6F70CE
:102AE000862F90E0A0E0B0E02C013D01022E04C052
:102AF000440C551C661C771C0A94D2F704FF12C0C4
:102B00008FE090E0A0E0B0E004C0880F991FAA1FFA
:102B1000BB1F2A95D2F7AC01BD0140955095609539
:102B2000709503C040E050E0BA01812F86958695EC
:102B300083708230E9F088F50091FA021091FB026F
:102B40002091FC023091FD02813069F0D301C20175
:102B5000842B952BA62BB72BBC01CD0160237123B1
:102B60008223932320C0402A512A622A732A15C047
:102B7000D301C201842B952BA62BB72B0091FA020F
:102B80001091FB022091FC023091FD02BC01CD01AD
:102B9000602771278227932706C0CB01BA016429D9
:102BA0007529862997290E94A82043C1EE2019F093
:102BB000812F817001C08695882309F43AC1202FA6
:102BC000229526952770220F220F602F6F70862F77
:102BD00090E0A0E0B0E02C013D01022E04C0440CC6
:102BE000551C661C771C0A94D2F704FF12C08FE0B4
:102BF00090E0A0E0B0E004C0880F991FAA1FBB1F9F
:102C00002A95D2F7AC01BD0140955095609570951D
:102C100003C040E050E0BA01812F8695869583700D
:102C20008230E9F088F50091150310911603209188
:102C3000170330911803813069F0D301C201842B4E
:102C4000952BA62BB72BBC01CD01602371238223CA
:102C500093238EC0402A512A622A732A15C0D301B9
:102C6000C201842B952BA62BB72B00911503109135
:102C700016032091170330911803BC01CD01602782
:102C800071278227932774C0CB01BA016429752963
:102C9000862997296DC01F70EE2029F0812F0E9490
:102CA0007120802FA1CE802F0E94F527812FBDC0DB
:102CB000802F92EF991609F441C0991538F0A0EFD2
:102CC0009A1661F0B1EF9B1699F18AC0E3EF9E1658
:102CD000D9F1F4EF9F1609F44EC082C0EE2029F01E
:102CE00004E00F1508F4A5C004C025E02F1508F472
:102CF000A0C01F7181E090E0A0E0B0E0AC01BD0198
:102D000004C0440F551F661F771F1A95D2F7809194
:102D1000150390911603A0911703B09118038A012F
:102D20009B01082719272A273B27C901B80120C082
:102D3000812F8F71EE2009F478C05CC0812F8F71D4
:102D4000EE2009F457C071C0EE2079F01F7181E0C8
:102D500090E0A0E0B0E0BC01CD0104C0660F771F99
:102D6000881F991F1A95D2F703C060E070E0CB016D
:102D70000E9425205EC0EE20D9F08091F0020E94D2
:102D8000CA1E8091F3028770843039F40E94451F77
:102D9000812F8F710E942F204BC024E02F1508F443
:102DA00047C01F71812F0E94712063E0812F11C0E5
:102DB0009091F6028091F002892B8093F60234E024
:102DC0003F1550F40E94451F0E944C1F64E0812F64
:102DD0008F710E9492202CC081E00E94542028C054
:102DE000EE2059F0FF2021F0802F0E945C2821C0A6
:102DF000812F8F710E9471201CC0FF20A1F08933A8
:102E000041F44FEF57EE83E0415050408040E1F7EE
:102E100004C0AFE3BCE91197F1F700C00000802FB8
:102E20000E94FC2706C0812F8F710E942F2001C0B5
:102E3000B12C88EF8A0D843020F40E9465060E9430
:102E40000E0CBB20F9F08091F30280FD1BC0F6014F
:102E500012828595859585950E947120C6010E94F4
:102E6000950F8091F3028595859585950E942F2079
:102E700009C001312FE5120709F096C982E073C934
:102E800069E2C3CC69960FB6F894DEBF0FBECDBF22
:102E9000DF91CF911F910F91FF90EF90DF90CF9036
:102EA000BF90AF909F908F907F906F905F904F906A
:102EB0003F902F900895CF93DF93CDB7DEB7E4977F
:102EC0000FB6F894DEBF0FBECDBF84B7877F84BF37
:102ED0000FB6F894A8958091600088618093600097
:102EE000109260000FBE90E080E80FB6F8948093D7
:102EF0006100909361000FBE85B7806885BF85B77C
:102F0000806885BF87E09DE190936D0180936C019F
:102F10000E94B9081092F8011092F70181E090E048
:102F20009093FD018093FC0182E090E09093020277
:102F3000809301020E9422260E9441268091E20095
:102F400084608093E200789480910B038823A1F041
:102F50001091E9001F709091EC00892F817090FD15
:102F600080E8182B1092E9008091E80083FD0E9410
:102F700000231F701093E90082E084BD93E095BDAB
:102F80009AEF97BD80936E0007E111E0F8018191FF
:102F90008F010E94680AF1E003321F07B9F703E2CC
:102FA00011E0F80181918F010E94680AF1E00C3272
:102FB0001F07B9F7E8E0F2E0ABE4B2E0119211923A
:102FC0001D921D9222E0E032F207C1F780E090E00E
:102FD0000E94EF298A3E9E4F11F00E94541E82E00B
:102FE00090E00E94E729809330020E94431E909354
:102FF0000702809306020E94A70D8FE39CE90197C8
:10300000F1F700C000000E94A70D80914B0280FFE5
:1030100017C06FEF83E290E00E94F5296FEF84E222
:1030200090E00E94F5296FEF85E290E00E94F5297B
:103030006FEF7FEF80E090E00E94132A0E948E1DC8
:1030400083E090E00E94E729682F70E080E090E044
:103050000E94A820229A2A9A239A2B9A279A2F9A7A
:1030600083E290E00E94E729883C81F484E290E0CA
:103070000E94E7298B3751F485E290E00E94E7290E
:1030800091E0803709F090E0892F01C080E080FF57
:1030900098C484E091E0909321028093200278E12B
:1030A000672E712CE0E45E2EF3E6CF2EF2E0DF2EE9
:1030B0008E010F5F1F4F80910B03853009F049C0CF
:1030C00050E1E52E62E1F62E80910B03853009F088
:1030D0003AC080910B03843021F180E00E940E0CF5
:1030E000109222020FB6F894A895609260000FBE6D
:1030F0005092600083B7817F846083BF83B7816013
:1031000083BF7894889583B78E7F83BF0FB6F8947A
:10311000A8958091600088618093600010926000A3
:103120000FBE80910A03882309F4CECF0E94A70D19
:10313000EBE4F2E081919191892B09F023C4CE1642
:10314000DF06C1F7C1CF0E94D7220E9465060E9408
:103150000E0C0E94A70D882359F08FB7F894409168
:1031600063025091640260916502709166028FBFA4
:10317000A1E3B2E0EBE4F2E0E12CF12C7E2D219111
:1031800031918D919D9182279327009779F160E08D
:10319000AA24A394B12CAC014A215B21452B09F14F
:1031A0006BA77CA72A213B2181E0232B09F480E037
:1031B0008DA70E94E71D8160782F9FA78EA74BA542
:1031C0005CA56DA58FA50E946A05F701EE0FFF1F94
:1031D000EF5CFD4F80819181A826B926B182A08243
:1031E0001CC06F5FAA0CBB1C6930A9F69FEFE91ADF
:1031F000F90A2CE0E216F10409F68FEF88AB89ABEF
:103200001AAA0E94E71D8160782F9CAB8BAB48A95E
:1032100059A96AA98CA90E946A0586E0E9E2F2E050
:10322000D80101900D928A95E1F7A0902B02B09001
:103230002C02E0902D02F0902E0210922B021092A0
:103240002C0210922D0210922E02A11003C0BB205E
:1032500009F451C080912702909128020E94D81D44
:103260009C0190912602992309F4C4C323333105AC
:1032700008F441C09F3F19F09F5F90932602AA2057
:1032800061F00E94E0091A1414F491E001C09FEF6C
:10329000899F802D112480932B02BB2061F00E9416
:1032A000E0091B1414F491E001C09FEF899F802D69
:1032B000112480932C0230912B023323E1F02091D2
:1032C0002C022223C1F045EB3403C00111249923C1
:1032D00019F090932B0203C081E080932B0235EB11
:1032E0002303C0011124992319F090932C0203C0E9
:1032F00081E080932C02E11003C0FF2009F451C04B
:1033000080912402909125020E94D81D9C019091E9
:103310002302992309F473C32536310508F441C00B
:103320009F3F19F09F5F90932302EE2061F00E946F
:10333000BE091E1414F491E001C09FEF899F802DF7
:10334000112480932D02FF2061F00E94BE091F14FA
:1033500014F491E001C09FEF899F802D1124809388
:103360002E0230912D023323E1F020912E022223F0
:10337000C1F045EB3403C0011124992319F0909357
:103380002D0203C081E080932D0235EB2303C001A1
:103390001124992319F090932E0203C081E08093A9
:1033A0002E0280912B0281110BC080912C02811181
:1033B00007C080912D02811103C080912E028111DE
:1033C0000E940F09AB82BC82ED82FE8286E0F8018A
:1033D000A9E2B2E001900D928A95E1F70E9465069C
:1033E00090912F02891731F00E94650680932F0279
:1033F0000E940E0C80910B03843009F05CCE83E0B8
:103400008093E9008091E80082FF55CE8091E8002A
:1034100085FF21C00E94772781111BC050E2A52E95
:10342000B12C780109C08091F100F70181937F01EF
:10343000F1E0AF1AB10869F08091E80085FDF3CFA3
:103440008091E8008B778093E8000E94772788239B
:1034500099F391E001C090E08091E8008B77809330
:10346000E800992309F427CEE0906702F090680203
:103470008981E114F10461F08E3F09F05BC28A8119
:10348000833008F44BC18550833008F053C246C1E5
:10349000893009F44DC2F0F4843009F479C050F455
:1034A0008230C1F108F065C0813009F041C21A8252
:1034B00089E0BAC1863009F472C008F039C22D81A2
:1034C0003E813227232732274C816B818A810E94DB
:1034D0009C0730C2803109F4C1C080F48D3009F4FA
:1034E00061C028F48C3009F023C280E1CEC18E3057
:1034F00009F45CC08F3009F483C01AC2823109F428
:10350000B0C008F4C1C1833109F4D4C08E3F09F4BE
:1035100005C10EC28A81823009F44AC2833089F023
:10352000813009F005C22FB7F89480916302909121
:103530006402A0916502B09166022FBFBB83AC8389
:103540002CC08091020190910301892B09F4F2C1F2
:10355000F801CE014996ABE4B2E02C9111963C9172
:10356000119712963283238332968E179F07A9F7FD
:10357000E1C18A81823009F0DBC16B817C818D8160
:103580009E810E944B2A86E290E00E94F529D2C1DA
:103590004C816B818A810E946F089D8310C20E94BA
:1035A000D207C8C181E08A838BE03EC1EA80FB80FC
:1035B000FE24EF24FE248C80912C2DE182169104B0
:1035C00008F0B8C15801C7018B509D4F9501201BD1
:1035D000310B2815390508F0ADC13BE0E31631E0A9
:1035E000F30628F40E94E729F501848302C0F5015F
:1035F0001482FFEFEF1AFF0A2FEFA21AB20AE3CFED
:103600008091020190910301892B09F493C1EA8012
:10361000FB80FE24EF24FE24AC80B12C3DE1A316F8
:10362000B10408F087C14801C7018B509D4F940138
:10363000201B310B2A153B0508F07CC14BE0E4163A
:1036400041E0F40620F4F40164810E94F529FFEFC3
:10365000EF1AFF0A2FEF821A920AE6CF0E94620742
:1036600069C1EA80FB80FE24EF24FE248C80912C2B
:103670003DE18316910408F05DC15801C7018796AA
:103680009501201B310B2815390508F053C148E876
:10369000E41642E0F40628F40E94E729F501848349
:1036A00002C0F5011482FFEFEF1AFF0A2FEFA21AF2
:1036B000B20AE4CFEA80FB80FE24EF24FE24AC8033
:1036C000B12C3DE1A316B10408F034C148E8E4167A
:1036D00042E0F40608F02EC188E892E08E199F09B6
:1036E0008A159B0508F426C14801C70187969401F5
:1036F000201B310B2A153B0508F01CC1E8E8EE162B
:10370000E2E0FE0620F4F40164810E94F529FFEF57
:10371000EF1AFF0A2FEF821A920AE7CFEA818E2F63
:1037200090E08E30910508F005C1FC01EE59FF4F85
:103730000C94452A88E0EFE0F1E0DE0191960190DB
:103740000D928A95E1F780E2F80111928A95E9F7E6
:1037500084E0898388E0FE01B196DE011596019030
:103760000D928A95E1F7E6C08CEA898382E08A832C
:103770001B821C82DFC08C8190E0982F88272B81D0
:10378000820F911D092E000CAA0BBB0B45E0880F80
:10379000991FAA1FBB1F4A95D1F7AC01BD01405E1E
:1037A0005F4F6F4F7F4F481759076A077B0708F431
:1037B000C1C08C3AF2E09F07A105B10508F0BAC07C
:1037C0004D3A22E052076105710520F04CEA52E0C3
:1037D00060E070E0481B590BBC01605E7A4FC80185
:1037E0000E94CE29A7C040E250E06FEF70E0C80110
:1037F0000E94662A809102018983EA829BC081E04F
:1038000090E0909368028093670282E390E0909347
:103810004A02809349020E94E71D8CC080910201F8
:103820008983EA82809149028B8384C040E250E020
:103830006FEF70E0C8010E94662A7CC08B818230E5
:1038400031F1A8F48823C9F0813009F073C08C816C
:103850002AE0F22E5E01F1E2AF0EB11CF5012F2D30
:1038600011922A95E9F7B5010E9487073EC083307F
:1038700069F1843009F442C05DC080E2F801119220
:103880008A95E9F784E0898383E08A8353C06C8159
:103890008AE0FE013596DE01919601900D928A959F
:1038A000E1F7643070F43AE0639FB0011124615590
:1038B0007D4F4AE050E0CE0181960E94192A80E0B7
:1038C00001C08FEF89830E94B90834C08C819AE0CF
:1038D000F92E5E0141E2A40EB11CF5012F2D1192CB
:1038E0002A95E9F7B5010E9472078983F501DE0187
:1038F000129601900D92FA94E1F71CC06C818AE057
:10390000FE013596DE01919601900D928A95E1F7C0
:10391000633070F43AE0639FB001112469527D4F27
:103920004AE050E0CE0181960E94192A80E001C051
:103930008FEF898380910B03843009F0BCCB809199
:10394000E9008F702091EC00922F917020FD90E89B
:10395000F92EF82A82E08093E9008091E80080FF48
:103960000CC040E050E060E270E0C8010E94AA276D
:103970008091E8008E778093E8008F2D8F70809380
:10398000E90099CBE9BCF9BC09B400FEFDCF8091F8
:10399000D8008F7D8093D8008091E0008260809372
:1039A000E0008091E00081FDFCCF0E94D7228CCB0B
:1039B00086E290E00E94E7291B821C821D828E8392
:1039C000B9CF60E086E290E00E94F5290E94D2071C
:1039D0000E94620768EC83E290E00E94F5296BE7A1
:1039E00084E290E00E94F52960E785E290E00E9481
:1039F000F5294FCB2D32314008F03ECC7CCC2D3216
:103A0000314008F08FCCCDCC80910003089580E048
:103A10000895CF93DF9300D01F92CDB7DEB790917A
:103A20000B03943011F589837B836A839093E900BB
:103A30008FEF9091E800815095FD06C095ED9A9525
:103A4000F1F700008111F5CF8091E80085FF0DC0EE
:103A500040E050E063E070E0CE0101960E94AA27AA
:103A60008091E8008E778093E8000F900F900F9080
:103A7000DF91CF910895BC0184E00C94091DBC0135
:103A800083E00C94091D24E02093E9002FEF30918E
:103A9000E800215035FD06C035ED3A95F1F70000FC
:103AA0002111F5CF2091E80025FF0BC040E050E048
:103AB00066E070E00E94AA278091E8008E778093EC
:103AC000E8000895CF93DF9321E02093E9002FEFE2
:103AD0003091E800215035FD06C035ED3A95F1F7FB
:103AE00000002111F5CF2091E80025FF14C0EC0162
:103AF00040E050E068E070E00E94AA278091E80072
:103B00008E778093E80088E0FE01A1E0B3E00190A9
:103B10000D928A95E1F7DF91CF91089581E080932E
:103B2000E00080E28093D8001092C9008FE19EE40B
:103B30000197F1F700C0000087E090EBDC01809373
:103B4000190390931A03A0931B03B0931C039CE0EA
:103B500088E10FB6F894A895809360000FBE90930B
:103B60006000FFCF78941F920F920FB60F9211242E
:103B70008F939F93AF93BF93809163029091640260
:103B8000A0916502B09166020196A11DB11D8093BE
:103B9000630290936402A0936502B0936602BF91A2
:103BA000AF919F918F910F900FBE0F901F9018951E
:103BB0009C014FB7F8948091630290916402A091A8
:103BC0006502B09166024FBF821B930B08952FB719
:103BD000F8948091630290916402A0916502B09183
:103BE00066022FBF08951F920F920FB60F921124F5
:103BF0008F939F93AF93BF9380912202811113C043
:103C00008091630290916402A0916502B091660276
:103C10004196A11DB11D8093630290936402A0930D
:103C20006502B0936602BF91AF919F918F910F9003
:103C30000FBE0F901F9018959C012A5F3F4FFC010B
:103C40004281461301C01282019682179307B9F789
:103C500008959C01FC0132969FEF80E04191461748
:103C600089F09F3F19F4411101C0982F8F5F863072
:103C7000A9F79F3F39F0F901E90FF11D97FDFA957A
:103C8000628308950895CF9384E090E00E94E7292D
:103C9000C82F82E290E00E94E7292C2F30E0A90192
:103CA000582BCA01CF9108956AEE7EEF80E090E034
:103CB0000E94132A60E082E090E00E94F52960E013
:103CC00083E090E00E94F5291092FA021092FB0224
:103CD0001092FC021092FD0260E084E090E00E94ED
:103CE000F52960E082E290E00E94F52960E085E03D
:103CF00090E00E94F52960E086E090E00E94F529BE
:103D00006FEF87E090E00E94F52940E050E0BA01B3
:103D100088E090E00E94072A60E08DE090E00E9439
:103D2000F52940E050E0BA0188E190E00E94072ABE
:103D300060E087E190E00E94F52940E050E0BA01A0
:103D40008CE190E00E94072A60E070E080E290E061
:103D50000E94132A40E050E0BA0188E190E00E94FE
:103D6000072A40E050E0BA018FE090E00E94072A65
:103D700040E050E0BA0183E190E00C94072A809182
:103D8000F902882331F01092F9021092F802109291
:103D9000F702089580959091F60289238093F602A8
:103DA00008959091F6028091F502892B9091F4028A
:103DB000892B809369028091F902882311F10E9476
:103DC000E71D2091F7023091F802821B930B88388F
:103DD000934110F00E94BF1E909169028091F902F8
:103DE000892B80936902EBE6F2E097E080E0915046
:103DF00029F021912223D9F38F5FF9CF81110E94FD
:103E0000BF1EE0912002F0912102309731F0028034
:103E1000F381E02D89E692E00994089580E090E036
:103E20000E944F0680E090E00E9439061092F50251
:103E30001092F4020E94D11EE9E2F2E086E0DF0176
:103E40001D928A95E9F71092260210922302109291
:103E500071020C940F09CF93C0910702C2FB9927FE
:103E600090F9981781F080FBC2F9C0930702609126
:103E7000060284E090E00E94F5296C2F82E290E037
:103E8000CF910C94F529CF9108951092F3021092DE
:103E9000F2021092F10208958091F00281111092C5
:103EA000F0020895BF92CF92DF92EF92FF920F93AC
:103EB0001F93CF93DF938C01C0901503D09016030E
:103EC000E0901703F09018038091FA029091FB02A2
:103ED000A091FC02B091FD02C82AD92AEA2AFB2A45
:103EE000CFE1D0E0D701C6010C2E04C0B695A7954E
:103EF000979587950A94D2F780FD04C0219790F793
:103F0000B12C07C0BC2EB8018C2F0E947F0A0197EC
:103F1000A9F38B2DDF91CF911F910F91FF90EF901F
:103F2000DF90CF90BF900895CF93DF93EC010E9474
:103F3000521FBE010E947F0ADF91CF9108950E9417
:103F4000941F292F2F70E92FE295EF704E2F50E02C
:103F5000FA013297EE30F105B8F4E059FF4F0C94B6
:103F6000452A803F99F018F4883E70F40FC0843FD2
:103F700059F40CC0883E50F0813F31F407C0822FC5
:103F8000869586958695089580E0089581E0089548
:103F90009E3F61F129E0929F800D1124682F669564
:103FA00066956695982F977085E0689FB0011124FB
:103FB00040E050E080E0FB01E40FF51FE655FD4FC7
:103FC000208130E0092E02C0369527950A94E2F749
:103FD00021703327042E01C0220F0A94EAF7822BA6
:103FE0004F5F5F4F4530510531F7089580E00895E8
:103FF0009E3F51F129E0929F800D1124E82FE69514
:10400000E695E695877051E001C0550F8A95EAF76D
:1040100085E0E89FF0011124E655FD4F20E030E0F7
:1040200070E04081CB01022E02C0969587950A94DC
:10403000E2F78170819584278523842781932F5F00
:104040003F4F2530310569F708956093150370934C
:10405000160380931703909318030C940E1F0F936D
:104060001F9341E050E060E070E004C0440F551F32
:10407000661F771F8A95D2F7409550956095709589
:104080008091150390911603A0911703B091180326
:104090008A019B01082319232A233B23C901B80164
:1040A0001F910F910C9425202091F302809582237B
:1040B0008093F302982F977041F430E0482F082E38
:1040C000000C550B2417350721F49091070292FF3D
:1040D00007C08595859585950E942F200C94451FD6
:1040E00008950F931F9341E050E060E070E004C03A
:1040F000440F551F661F771F8A95D2F780911503CD
:1041000090911603A0911703B09118038A019B01A7
:10411000082B192B2A2B3B2BC901B8011F910F919A
:104120000C9425209091070292FD10C098E0899F81
:1041300090011124262B2093F3020E9471200E94EB
:10414000E71D9093F2028093F10208950C94712080
:104150006093FA027093FB028093FC029093FD023D
:104160000C940E1F8091A90290917802891719F082
:104170008F5F8770FBCF08950F931F93CF93DF93CB
:104180008091770282958F7009F05DC080917402F2
:10419000882309F458C08091A90210917802609197
:1041A000720270917302C0917502D091760291E013
:1041B0006F3F09F090E0292F06E0811709F443C012
:1041C000209721F07F3F21F030E003C031E001C0B3
:1041D000322F90E030FD34C0089FF001099FF00DB0
:1041E0001124DF01A758BD4F11963C911197371349
:1041F00027C03C91361324C012963C91129731117E
:104200001FC013964D915C9114974C1B5D0B483C5D
:104210005105B0F4809177028F70806180937702AE
:10422000E258FD4F80818F708061808382E792E049
:104230000E94950FDF91CF911F910F910C94B220A6
:1042400001968770BACFDF91CF911F910F9108959A
:104250009F92AF92BF92CF92DF92EF92FF920F9315
:104260001F93CF93DF93CDB7DEB761970FB6F89466
:10427000DEBF0FBECDBF8C0185E0F801DE011D96CB
:1042800001900D928A95E1F7F80190818181E28099
:1042900030917202609173024091750250917602E2
:1042A0004115510531F06F3F31F421E03F3F19F4E2
:1042B00003C021E001C020E0F22FF1709F2E20FD0D
:1042C00023C1F801C380D48022E7A22E22E0B22EBF
:1042D000F0907402F601E41BF50BFF2009F4CEC048
:1042E00020917702E83CF10508F099C0422F407F09
:1042F00009F051C0681311C039130FC0FE2CE11032
:104300000CC02F70206120937702C5010E94950F89
:1043100080917702F801858337C1CD2831F08F3F36
:1043200031F421E09F3F19F403C021E001C020E0F7
:1043300020FD03C021E02E2502C020E030E0F22F56
:10434000F170FF2E20FF1DC02091A902409178023C
:1043500056E0241709F4F6C030E0529FF001539F55
:10436000F00D1124E758FD4F6181861306C060816E
:10437000961303C06281E61204C02F5F3F4F27707F
:10438000E8CFFE2CEE2009F4FFC080917702816017
:104390008093770250C0681307C0391305C0E1103D
:1043A00003C0F80125838DC09D878E878D859E85EE
:1043B0000E949F1F882369F1EE2059F12091770216
:1043C000822F82958F7090E0029774F08091720234
:1043D0009091730298878F831986DB86CA862C8713
:1043E000CE0107960E94950F86E0F801A2E7B2E0A1
:1043F00001900D928A95E1F70E94BC200DC06817CC
:10440000E1F09D878E878D859E850E949F1F81117B
:104410001EC0C8010E94950FFF24F394B5C0422F1F
:10442000407F69F782E792E00E94950F86E0F501F0
:1044300011928A95E9F7F12CA7C03913E2CFE11068
:10444000E0CFF8012583C8010E94950F57C0EE20E8
:1044500001F320917702822F82958F7090E002976E
:104460001CF280917202909173029A8389831B825D
:10447000DD82CC822E83CE010196B4CFE83CF105DB
:10448000E8F5FE2CEE2029F2681327C0391325C069
:104490002091770220FD18C0822F82958F70482FBF
:1044A00050E04115510581F0F80125834F30510549
:1044B00041F08F5F982F9295907F822F8F70892B7C
:1044C0008583C8010E94950F86E0F801A2E7B2E05B
:1044D00001900D928A95E1F757C09D878E878D8553
:1044E0009E850E949F1F81117FCF809177028160FE
:1044F00080937702C8010E94950F46C086E0F501BF
:1045000011928A95E9F740C0EE2009F482CF9D8789
:104510008E878D859E850E949F1FF82E882309F423
:1045200078CF86E0F801A2E7B2E001900D928A957B
:10453000E1F780917202909173020E94941F0E9491
:10454000BC2022C09D878E878D859E850E94941FEA
:10455000292F22952F70223028F49F7039F0811175
:1045600005C00BC0243028F49F7049F4805E883069
:1045700020F0C8010E94950F9F2CF92C05C0F8016E
:104580009581907F99F7F9CF8F2D61960FB6F894AA
:10459000DEBF0FBECDBFDF91CF911F910F91FF9076
:1045A000EF90DF90CF90BF90AF909F9008951092C2
:1045B000F60286E0EBE6F2E0DF011D928A95E9F76C
:1045C0000C940E1F0F931F93809115039091160367
:1045D000A0911703B09118038C019D01067011275B
:1045E00022273327BC01CD010630110521053105F5
:1045F00011F4686001C0677F1F910F910C94252012
:104600001F93CF93DF93CDB7DEB7AA970FB6F89479
:10461000DEBF0FBECDBFEDE0F3E08091F1008193EE
:1046200043E0E531F407C9F780910E03833009F4C4
:1046300062C030F4813071F0823009F49CC0B3C0A4
:104640008A3009F488C08B3009F46DC0893009F0D4
:10465000AAC020C080910D03813A09F0A4C08091C6
:10466000E800877F8093E800809111039091120306
:10467000892B21F468E081E093E003C060E080E0F2
:1046800090E070E00E9470298091E8008B77809321
:10469000E80089C080910D03813209F084C08091C7
:1046A000110390911203009719F0029709F07BC053
:1046B0008091E800877F8093E8008091E80082FD88
:1046C00005C080910B038111F8CF6DC02091F300DC
:1046D0008091F20090E0922B029729F48091F100F2
:1046E0008B7F813021F48091F100809300038091D1
:1046F000E8008B7754C080910D03813A09F053C0D4
:104700008091110390911203892B09F04CC0809184
:10471000E800877F8093E8008091E80080FFFCCF6D
:1047200080910E0137C080910D038132E1F58091B7
:10473000110390911203892BB1F58091E800877FD6
:104740008093E8000E941C2980910F0380930E0142
:104750000E94D72228C080910D03813221F58091DB
:10476000E800877F8093E8000E941C298091100355
:104770008093FF0218C080910D03813AA1F48091CB
:10478000E800877F8093E8008091E80080FFFCCFFD
:104790008091FF028093F1008091E8008E778093F2
:1047A000E8000E941C298091E80083FFE9C1809104
:1047B0000D0390910E03492F50E04A30510508F047
:1047C000DFC1FA01E258FF4F0C94452A803821F0EE
:1047D000823809F0D5C108C08091090390910A037D
:1047E000992389F082600FC0809111038F70873008
:1047F00008F0C6C18093E9008091EB0085FB882713
:1048000080F91092E9009091E800977F9093E8007A
:104810008093F1001092F1007CC1282F2D7F09F0C8
:10482000AFC1882319F0823061F0AAC180910F03D3
:10483000813009F0A5C1933009F080E080930A032C
:104840002EC080910F0381112AC0809111038F70B7
:104850002FEF280F263008F093C18093E9002091B4
:10486000EB0020FF1CC0933021F48091EB008062AC
:1048700014C09091EB0090619093EB0021E030E048
:10488000A90102C0440F551F8A95E2F74093EA0040
:104890001092EA008091EB0088608093EB00109208
:1048A000E9008091E800877F8093E8000E941C293E
:1048B00067C1811165C110910F031F778091E300DB
:1048C0008078812B8093E3008091E800877F80933C
:1048D000E8000E941C298091E80080FFFCCF8091B5
:1048E000E30080688093E300111102C082E001C000
:1048F00083E080930B0344C18058823008F040C1AC
:1049000020910F03309110032C3D53E0350779F5CA
:1049100083E08A838AE289834FB7F894DE01139695
:1049200020E03EE051E2E32FF0E050935700E491A5
:1049300020FF03C0E295EF703F5FEF708E2F90E095
:10494000EA3010F0C79601C0C0968D939D932F5FFB
:10495000243149F74FBF8091E800877F8093E800BA
:104960006AE270E0CE0101960E947029C0C0809179
:10497000110390911203432F552743305105B1F095
:1049800068F44130510509F40AC14230510509F07B
:10499000F7C08BE590E0EFEAF8E057C041325105EF
:1049A00089F14232510509F43CC0EAC0C901992796
:1049B00081309105B9F070F082309105D9F00397FC
:1049C00009F0DEC0ECE1F9E0E4918E2F90E0ECE13B
:1049D000F9E038C0EEE5F9E0E4918E2F90E0EEE5E5
:1049E000F9E030C0EEE4F9E0E4918E2F90E0EEE4DF
:1049F000F9E028C0EAE3F9E0E4918E2F90E0EAE3E1
:104A0000F9E020C08330910508F0BAC0880F991FE3
:104A1000FC01EB5CFE4F0190F081E02D89E090E01D
:104A200014C08330910508F0ABC0FC01EE0FFF1FEE
:104A3000E15DFE4F0190F081E02DDC01A45DBE4FF1
:104A40008C9190E0009709F49BC02091E800277FAB
:104A50002093E8002091130330911403281739079D
:104A600008F4C90140E0009789F120910B0322234B
:104A700009F43DC02530D9F12091E80023FD37C06D
:104A80002091E80022FD2FC02091E80020FFEBCF0D
:104A90004091F3002091F20030E0342B009759F060
:104AA0002830310540F444914093F100319601974C
:104AB0002F5F3F4FF3CF41E02830310509F040E050
:104AC0002091E8002E772093E800CDCF4111CDCF83
:104AD0000AC080910B03882351F0853041F080910A
:104AE000E80083FD04C08091E80082FFF2CF80914E
:104AF000E8008B778093E80043C0803809F040C01D
:104B00008091E800877F8093E80080910C03809378
:104B1000F1008091E8008E77C7CE811131C080917D
:104B20000F03909110039927029754F58091E800A4
:104B3000877F8093E80010910F0310930C030E946D
:104B40001C29111106C08091E30087FD02C081E09D
:104B500001C084E080930B0342E061EC81E00E949D
:104B60003B2942E261EC84E00E943B2942E261EC95
:104B700082E00E943B2942E260EC83E00E943B29F4
:104B80008091E80083FF10C08091E800877F8093C8
:104B9000E8008091EB0080628093EB0005C082E129
:104BA00090E0EAE0F9E051CFAA960FB6F894DEBFA4
:104BB0000FBECDBFDF91CF911F9108951F920F922D
:104BC0000FB60F9211242F933F934F935F936F93E0
:104BD0007F938F939F93AF93BF93CF93DF93EF9385
:104BE000FF93C091E900CF708091EC00D82FD17075
:104BF00080FDD0E81092E9008091F000877F8093DB
:104C0000F00078940E9400231092E9008091F00057
:104C100088608093F000CD2BCF70C093E900FF91A6
:104C2000EF91DF91CF91BF91AF919F918F917F9144
:104C30006F915F914F913F912F910F900FBE0F9009
:104C40001F901895E8EDF0E080818E7F80831092B0
:104C5000E2001092DA001092E100A0EEB0E08C9138
:104C600081608C9380818F77808319BCA7EDB0E041
:104C70008C918E7F8C9380818F7E80831092FE0238
:104C80000895CF92DF92EF92FF920F931F93CF93ED
:104C9000DF93C8EDD0E088818F7E8883E7EDF0E078
:104CA00080818160808384E082BF81E08093FE0206
:104CB00088818E7F888302EE10E0F80110821092C6
:104CC000DA0081EEC82ED12CF601108288818F7710
:104CD000888388818068888388818F7D888319BCD8
:104CE00010920B0310920C0310920A031092090306
:104CF00090EEE92EF12CF70180818B7F80838881F3
:104D00008160888342E060E080E00E943B29F601F8
:104D100080818E7F8083F8018081816080838081A3
:104D200088608083F70180818E7F808388818061A5
:104D30008883DF91CF911F910F91FF90EF90DF90CB
:104D4000CF9008951F920F920FB60F9211242F93B8
:104D50003F934F935F936F937F938F939F93AF9303
:104D6000BF93EF93FF938091E10082FF09C0809190
:104D7000E20082FF05C08091E1008B7F8093E1001B
:104D80008091DA0080FF2AC08091D80080FF26C081
:104D90008091DA008E7F8093DA008091D90080FFC5
:104DA00018C080E189BD82E189BD09B400FEFDCF54
:104DB00081E080930B038091FE0281110FC00E945D
:104DC00022260E9441268091E20084608093E200C6
:104DD00005C019BC10920B031092FE028091E100F5
:104DE00080FF17C08091E20080FF13C08091E20035
:104DF0008E7F8093E2008091E20080618093E200E8
:104E00008091D80080628093D80019BC85E080939F
:104E10000B038091E10084FF2EC08091E20084FFAB
:104E20002AC080E189BD82E189BD09B400FEFDCFC1
:104E30008091D8008F7D8093D8008091E1008F7E93
:104E40008093E1008091E2008F7E8093E200809168
:104E5000E20081608093E20080910C03882311F0CE
:104E600084E007C08091E30087FD02C081E001C0BB
:104E700083E080930B038091E10083FF27C0809142
:104E8000E20083FF23C08091E100877F8093E100EF
:104E900082E080930B0310920C038091E1008E7FDF
:104EA0008093E1008091E2008E7F8093E200809108
:104EB000E20080618093E20042E060E080E00E94D6
:104EC0003B298091F00088608093F000FF91EF9182
:104ED000BF91AF919F918F917F916F915F914F9112
:104EE0003F912F910F900FBE0F901F90189520911A
:104EF000E4003091E50095E64091EC00842F81704C
:104F000040FF23C08091E80080FD1DC080910B030D
:104F1000882399F0853099F08091EB0085FD11C0D0
:104F20004091E4005091E5002417350729F3915092
:104F300011F09A01E1CF84E0089582E0089583E0C2
:104F4000089581E0089580E008954091E80042FFCF
:104F5000DDCF0895EF92FF920F931F93CF93DF93CE
:104F60007C018B010E947727811119C0E70101158F
:104F70001105A1F08091E80085FD0AC08091E8004C
:104F80008E778093E8000E947727882381F307C0FB
:104F900089918093F10001501109E9CF80E0DF9100
:104FA000CF911F910F91FF90EF900895882341F0CA
:104FB00080959091F50289238093F5020C94D11E7F
:104FC0000895882339F09091F502892B8093F5029A
:104FD0000C94D11E0895882339F09091F602892B04
:104FE0008093F6020C94D11E0895882321F00E942C
:104FF000CA1E0C94D11E0895882309F45CC082381F
:1050000069F40E94650681FF56C069E389E692E073
:105010000E94291E0E94D11E69E30EC0833891F4BC
:105020000E94650680FF47C063E589E692E00E9422
:10503000291E0E94D11E63E589E692E00E941C1E93
:105040000C94D11E843869F40E94650682FF33C037
:1050500067E489E692E00E94291E0E94D11E67E45F
:10506000EBCF9CEF980F913A10F4682FE5CF90E2C8
:10507000980F983050F4877091E001C0990F8A958D
:10508000EAF7892F0E94CA1EDBCF9BE5980F933069
:1050900020F480E090E00C944F0698E5980F97314B
:1050A00020F480E090E00C943906803F20F00E94CC
:1050B00039090C940F090895CF93882309F49EC0F1
:1050C000C82F8238B1F40E94650681FD97C069E35C
:1050D00089E692E00E94291E0E94D11E2FEF81EEE8
:1050E00094E0215080409040E1F700C0000069E367
:1050F00017C08338E1F40E94650680FD7FC063E538
:1051000089E692E00E94291E0E94D11E2FEF81EEB7
:1051100094E0215080409040E1F700C0000063E53A
:1051200089E692E00E941C1ECF910C94D11E843817
:10513000B1F40E94650682FD61C067E489E692E0F1
:105140000E94291E0E94D11E2FEF81EE94E0215073
:1051500080409040E1F700C0000067E4E1CF8CEFB1
:105160008C0F813A80F4EBE6F2E081E792E0219146
:10517000C217E1F18E179F07D1F76C2F89E692E0F5
:105180000E94291ED1CF80E28C0F883068F4C7704E
:1051900081E090E001C0880FCA95EAF79091F6028D
:1051A000892B8093F602C0CFEBE5EC0FE33040F49F
:1051B000F0E0E55CFE4F808190E0CF910C944F06CB
:1051C000E8E5EC0FE73150F4F0E0EE0FFF1FE25C92
:1051D000FE4F80819181CF910C943906C03F70F0D1
:1051E0008C2F0E94000ACF910C940F096C2F89E636
:1051F00092E00E941C1E0E94D11EBFCFCF91089545
:105200001F93CF93DF93182F893319F0CAE0D0E0B2
:1052100002C0C0E5D0E0812F0E945C288FE99FE0AA
:105220000197F1F700C000002197C1F7812FDF91AE
:10523000CF911F910C94FC2780910D0387FF11C023
:105240008091E80082FD05C080910B038111F8CFA9
:1052500011C08091E8008B770BC080910B038823ED
:1052600049F08091E80080FFF8CF8091E8008E77C8
:105270008093E8000895982F973068F59093E9009F
:10528000981739F07091EC002091ED005091F000EA
:1052900003C0242F762F50E021FD02C09F5FECCF8A
:1052A0003091EB003E7F3093EB003091ED003D7F7D
:1052B0003093ED003091EB0031603093EB00709350
:1052C000EC002093ED005093F0002091EE0027FDBC
:1052D000E5CF80E008958F708093E90081E0089524
:1052E00020911303309114032617370748F06115F6
:1052F000710539F42091E8002E772093E80001C071
:10530000B901FC0120E06115710579F180910B0371
:105310008823F1F18530F1F18091E80083FD3CC0F4
:105320008091E80082FD2EC08091E80080FFEBCFE5
:105330002091F3008091F20090E0922B61157105AD
:1053400051F08830910538F421912093F10061509B
:1053500071090196F3CF21E0089709F020E08091D0
:10536000E8008E778093E800CECF2111CFCF0AC01E
:1053700080910B03882361F0853061F08091E80013
:1053800083FD0AC08091E80082FFF2CF80E008959B
:1053900082E0089583E0089581E00895FB01DC0137
:1053A00002C005900D9241505040D8F70895DC019D
:1053B000CB01FC01F999FECF06C0F2BDE1BDF89A20
:1053C000319600B40D9241505040B8F70895F999C4
:1053D000FECF92BD81BDF89A992780B50895A8E1C6
:1053E000B0E042E050E00C94D929262FF999FECF85
:1053F00092BD81BDF89A019700B4021639F01FBA28
:1054000020BD0FB6F894FA9AF99A0FBE0895039644
:10541000272F0E94F6290E94F529252F0E94F629A0
:10542000242F0C94F6290196272F0E94F6290C941C
:10543000F529DC01CB0103C02D910E94242A4150A3
:105440005040D0F70895262FF999FECF1FBA92BD8C
:1054500081BD20BD0FB6F894FA9AF99A0FBE019655
:10546000089597FB072E16F4009407D077FD09D016
:105470000E94522A07FC05D03EF4909581959F4FDB
:105480000895709561957F4F0895EE0FFF1F059069
:10549000F491E02D099469279627692778278727B3
:1054A00078270895AA1BBB1B51E107C0AA1FBB1F89
:1054B000A617B70710F0A61BB70B881F991F5A95A0
:1054C000A9F780959095BC01CD010895DC0101C03C
:0E54D0006D9341505040E0F70895F894FFCFDF
:1054DE00FF010100041D621D431D3F1D3B1D01DE2A
:1054EE00647D7DDF7848D8303191906667353634EB
:1054FE00979496F0F1F4F5F6F7C693924022816FE9
:10550E00084D08CC07C108DA08FA08818283E20048
:10551E00E900EA00B500B600B700CD008301CC006B
:10552E008A019201940121022302240225022602FD
:0C553E0027022A02B300B4006F007000C6
:00000001FF
