:100000000C947A040C94C1040C94C1040C94C104A3
:100010000C94C1040C94C1040C94C1040C94C1044C
:100020000C94C1040C94C1040C9440260C947C25BF
:100030000C94911D0C94C1040C94C1040C94C10443
:100040000C94C1040C94C1040C94C1040C94C1041C
:100050000C94C1040C94501D0C94C1040C94C10464
:100060000C94C1040C94C1040C94C1040C94C104FC
:100070000C94C1040C94C1040C94C1040C94C104EC
:100080000C94C1040C94C1040C94C1040C94C104DC
:100090000C94C1040C94C1040C94C1040C94C104CC
:1000A0000C94C1040C94C1040C94C10426142614AD
:1000B0005E145E14DA14F614BA16BA160315EC15AB
:1000C000F915F915381B521B591B381C381C911B8C
:1000D0009D1BAC1B381CB41B381C381C381CBC1BAB
:1000E0004F1F4F1F621F621F581F621F621F621F38
:1000F0004F1F4F1F5D1F621F621F5D1F8423AB23B5
:100100005E25AB235E25F7231A245E251B252B25B0
:1001100000000000000000000000000000000000DF
:1001200000000000000000000000000000000000CF
:10013000000000007E0F00D4FFFFFFC70000007822
:1001400000000000000000002A2B28000000000032
:100150000000000000000000000000290000000076
:100160002C1E3420212224342627252E362D3738E4
:10017000271E1F202122232425263333362E3738ED
:100180001F0405060708090A0B0C0D0E0F101112AB
:10019000131415161718191A1B1C1D2F3130232D77
:1001A000350405060708090A0B0C0D0E0F10111275
:1001B000131415161718191A1B1C1D2F3130354C26
:1001C00029003A003C003E00400042004400490043
:1001D0004B0000003B003D003F0041004300450054
:1001E0004C004E0035001F00210023002500270091
:1001F0002E00530055001E0020002200240026007F
:100200002D002A00540056002B001A0015001C0077
:100210000C00130030005F0061001400080017009C
:10022000180012002F00310060005700390016003E
:1002300009000B000E00330032005C005E00040079
:1002400007000A000D000F00340028005D000000C8
:10025000E1001D000600050010003700E500590010
:100260005B0064001B0019001100360038005200CA
:100270005A005800E000E20000002C000000E400FA
:1002800050004F006300E300000000000000E600A3
:100290000151510062000000010001000100010055
:1002A00001000100010001004A00000001000100FE
:1002B000010001000100010001004D0001000100EA
:1002C0000100010001000100010001000100010026
:1002D0000100010001000100010001000100010016
:1002E000010001000100010046004800010001007A
:1002F00001000100010001000100470001000100B0
:1003000001000100010001000100010001000100E5
:1003100001000100010001000100010001000100D5
:1003200001000100010000000100010001000100C6
:1003300001000100010001000100010001000100B5
:1003400001000100010001000100010001000100A5
:100350000000010000006500010001000100010033
:100360000000000000000100010001000100000089
:100370000100010001000100010001000100010075
:100380000100000001000100010001000100010066
:100390000100010001000100010001000100010055
:1003A0000100010001000100010001000100010045
:1003B0000100010001000100010001000100010035
:1003C0000100010001000100010001000100010025
:1003D0000100010001000100010001000100010015
:1003E0000100010001000100010001000100010005
:1003F00001000100010001000100010001000000F6
:1004000001000100010001000100010001000100E4
:1004100001000100010001000100010001000100D4
:1004200001000100010001000000010000000100C6
:1004300001000100010001000000000000000100B7
:1004400001000100010000000100010001000100A5
:100450000100010001000100010000000100010095
:100460000100010001000100010001000100010084
:100470000100010001000100010001000100010074
:100480000100010001000100010001000100010064
:100490000100010001000100010001000100010054
:1004A0000100010001000100010001000100010044
:1004B0000100010001000100010001000100010034
:1004C0000100010001000100010001000100010024
:1004D0000100010001000000010001000100010015
:1004E0000100010001000100010001000100010004
:1004F00001000100010001000100010001000100F4
:1005000000000100000001000100010001000100E5
:1005100000000000000001000100010001000000D7
:10052000FD377A585A000004E6D6B446020021018D
:1005300016000000742FE5A3E0063E02045D003DB6
:100540008889C65436C3174FE4DDF90D50A142EF38
:100550006F6C1270A2E44BD054ED674E1D0AD18B24
:1005600032AD112DACBA137777A3A1194CEA92B131
:10057000D5169946AF433FD08A6441455A024E8909
:10058000DB965374871EC01E58D292C8D1191879B1
:10059000502874328E54A87FBA48C4DEACEF8695DA
:1005A000282BEC9980E5FCA33036F197CA1B602E0E
:1005B0007783A35181D04C0628F3E2835E3044CD8B
:1005C0001FE744CCA6E3555E708141F11561F4CA82
:1005D0009D27E5F5A4282668560913D8D6BDFD4504
:1005E0008D6850231221CFC050AF45AF26E746FD9E
:1005F000F9556667889640D47B385BB54584FEE73D
:10060000627F90CC15DEFDA70CB3EC6DC9CD7835BB
:10061000CCB7813F7BBD9AC9D4AE73F022C116FD21
:10062000E6C2C60AD1803C7D651C947BFA19C08461
:10063000E23370FDF27772019A8F9D467C4ABB8946
:10064000C3485258CE59D5340B6A9D6EC830168FA8
:100650005B4B72801FBFA6756B076CD8BB70536372
:10066000EB148DE0B069E6A5CC2CB59A63A2568C4C
:10067000B27625392962D53F395EE4672BDACE3F61
:100680007E5BFF55522A23190ACCF37F15F0764280
:1006900096D61B8B9A027AF3675FF30C00E4589EA0
:1006A000F689D325D9F773D1E28D2B67678B30C9D3
:1006B00091503BD8C5B220E2C525CB504817B8436E
:1006C000E26740F1277FF023957BA0F674BF5DBA07
:1006D00057BC9A641C33824110F041DDFCC70170A5
:1006E0005AB3CBBC59170304787343351165149A78
:1006F0000B6E0293164B850ADA1563B0A3D87233DA
:10070000933132D0CB6D31A1B0A3F493B335C5474B
:100710009C78A5B951D782E3AF19E974E7D71D8B4F
:100720008FCC718FEB5C34AC48F3CDCB80F843CAEF
:1007300087D8A9DB60EABC90CCC956288EED133D62
:100740009F3512006C605A1178CD89CF0001A0044A
:10075000BF0C00005BC4C263B1C467FB02000000B1
:100760000004595A05010902A10185020901A100ED
:100770000509190129051500250195057501810255
:100780009501750381010501093009311581257F26
:1007900095027508810609381581257F9501750830
:1007A0008106050C0A38021581257F95017508819F
:1007B00006C0C005010980A101850319012AB700FF
:1007C000150126B700950175108100C0050C0901BF
:1007D000A101850419012AA002150126A002950194
:1007E00075108100C00660FF0961A1010962150052
:1007F00026FF009520750881020963150026FF0079
:10080000952075089102C005010906A10105071987
:10081000E029E7150025019508750181029501750C
:100820000881010507190029FF150026FF0095061C
:1008300075088100050819012905950575019102C2
:10084000950175039101C009025B00030100A0FA44
:100850000904000001030101000921110100012226
:1008600040000705810308000A0904010002030093
:100870000000092111010001222200070582032046
:100880000001070503032000010904020001030021
:1008900000000921110100012281000705840320C5
:1008A000000A12011001000000080547F8AA010023
:1008B000010203011C037600690061006C003A002C
:1008C00066003600340063003200620033006300CB
:1008D00000000C036E007400390038003000000086
:1008E0000E034500760079006400310033000000FB
:1008F0000403090411241FBECFEFDAE0DEBFCDBF31
:1009000004B603FE27C08091140390911503A091B3
:100910001603B09117038730904BA740B04BD1F42A
:1009200010921403109215031092160310921703DD
:1009300014BE84B7877F84BF0FB6F894A8958091C2
:100940006000886180936000109260000FBEE0E05C
:10095000F8E3099511E0A0E0B1E0EAE1F4E502C0B6
:1009600005900D92AC36B107D9F723E0ACE6B1E0C3
:1009700001C01D92A431B207E1F70E94FC160C944D
:100980000B2A0C9400009091010292FF0DC0282FB9
:100990002871283019F4877F846006C0282F2471BD
:1009A000243011F48B7F886093FF0DC0282F2871AD
:1009B000283119F4877E846106C0282F24712431E0
:1009C00011F48B7E88612091020220FF0DC0382F28
:1009D0003871383019F4877F816006C0382F317143
:1009E000313011F48E7F886021FF0DC0282F2871CF
:1009F000283119F4877E816106C0282F21712131A9
:100A000011F48E7E886194FD877E08959C013A954D
:100A100021153F4138F5DC01AA27B270AC0144270B
:100A200054709C012227387094FF0FC090FF02C0C1
:100A300080E101C080E0AB2B09F08062452B09F01A
:100A40008064232B69F080680BC0892F8170AB2BE9
:100A500009F08260452B09F08460232B09F088603F
:100A6000FB0109940895CF92DF92FF920F931F9399
:100A7000CF93DF93CDB7DEB767970FB6F894DEBF9D
:100A80000FBECDBFF42E4B8B052F5C8B162F6D8BBD
:100A90007E8B8F8BCE88DF8861111092F002FE0171
:100AA0003D9686E0DF011D928A95E9F70E94851D3B
:100AB0002091EC023091ED02821B930B8838934118
:100AC00040F08091EE0282FB992790F981E089271E
:100AD00001C080E080FF03C082E00E94F21F0E94FC
:100AE000851D2091F2023091F302821B930B88380E
:100AF000934110F00E945D1EFD860E871F87D98AE4
:100B0000C88A86E0FE013D96DE01179601900D929F
:100B10008A95E1F7CE0107960E94C62081113EC05A
:100B200086E0FE013796DE01119601900D928A95BE
:100B3000E1F7FF81E8856A857B856115710531F0F4
:100B4000EF3F31F481E0FF3F19F403C081E001C0C1
:100B500080E080FD23C02091730230E0C90101963E
:100B6000877099274091A40250E08417950779F186
:100B7000F983EA837D836C8396E0929FD001939FF3
:100B8000B00D1124AC58BD4FFE01319601900D926D
:100B90009A95E1F7809373020E94502016E08091AD
:100BA000A402909173028917F9F0189FC0011124D3
:100BB0008C589D4F0E94C6208823B1F08091A402DA
:100BC00090E00196877099278093A402E8CF0E9455
:100BD0007522109273021092A402EDE6F2E086E014
:100BE000DF011D928A95E9F767960FB6F894DEBF8C
:100BF0000FBECDBFDF91CF911F910F91FF90DF907E
:100C0000CF900895209185013091860128173907EA
:100C100071F09093860180938501E0911B02F09121
:100C20001C02309721F00084F185E02D099408958D
:100C300020918301309184012817390771F0909336
:100C4000840180938301E0911B02F0911C02309794
:100C500021F00680F781E02D09940895E0911B02B0
:100C6000F0911C02309721F00190F081E02D099461
:100C700080E00895CF93DF93EC0181E0898B909120
:100C8000F1028F81892B8093F1029091F002888587
:100C9000892B8093F0020E946F1EEA81FB81CE01B6
:100CA0000696309729F06C897D89DF91CF91099460
:100CB000DF91CF910895EF92FF920F931F93CF93FF
:100CC000DF93FC01228521113AC0EC01E380F4801E
:100CD000F7E5FF1A26E12E9DC0012F9D900D1124EE
:100CE000DC01A757BE4F1496ED91FC9115978157E3
:100CF0009E4F309729F054966D917C9155970995A8
:100D000086E18E9D80018F9D100D112407571E4F87
:100D1000F80187810E94681EF80180858095909176
:100D2000F00289238093F0020E946F1E18821986B8
:100D30001B861E821D821092880110928701DF910E
:100D4000CF911F910F91FF90EF900895E7EFF1E0A1
:100D500080E090E08230910531F0248127FF1482F9
:100D600001963596F7CF9093F4018093F30108959F
:100D70000F931F93CF93DF93C42FD22FFC01828157
:100D80008823C9F04093F5010E94851D909382014C
:100D90008093810180E28C0F883008F057C0C770C3
:100DA00081E001C0880FCA95EAF7DF91CF911F91CA
:100DB0000F910C9489278091F501481330C08091E0
:100DC0008101909182010E94761D883C910538F541
:100DD00010E21D0FCD17B9F080E28C0F883040F47F
:100DE000C77081E001C0880FCA95EAF70E94932777
:100DF000183028F581E09D2F977001C0880F9A95D3
:100E0000EAF70E948927802F0E949E281830F0F46C
:100E1000D77081E001C0880FDA95EAF70AC080E256
:100E20008C0F883098F4C77081E001C0880FCA9594
:100E3000EAF7DF91CF911F910F910C949327802FA8
:100E4000DF91CF911F910F910C949E28DF91CF914C
:100E50001F910F910895CF93DF93CBE3D1E060E032
:100E6000CE010E9493292196C11584E0D807B9F7D5
:100E7000DF91CF910895823080F49B01982F8AE012
:100E8000989FB0011124695D7E4F4AE050E0C9018E
:100E90000E94752980E090E008958FEF9FEF0895FC
:100EA000843080F49B01982F8AE0989FB001112430
:100EB00061507F4F4AE050E0C9010E94752980E0EF
:100EC00090E008958FEF9FEF08950F931F93CF93B6
:100ED000DF93811126C06C3020F5493010F52115C3
:100EE0008CE5380731F48091020190910301892B40
:100EF000C1F08901C42FD0E0CC0FDD1F82E1689FD3
:100F0000C00DD11D1124612FCE0187960E94932917
:100F1000602FCE018896DF91CF911F910F910C9495
:100F20009329DF91CF911F910F910895BF92CF9296
:100F3000DF92EF92FF920F931F93CF93DF93CDB782
:100F4000DEB764970FB6F894DEBF0FBECDBFC0907A
:100F50000201D090030181E090E09093030180931F
:100F60000201B12CE12CF12C00E010E0F801EE0DB3
:100F7000FF1DEE0FFF1FE054FE4F25913491402FCF
:100F80006B2D80E00E9465070F5F1F4F0930110530
:100F900069F789E0E80EF11CB394ECE0BE12E4CFEF
:100FA0001A8219821C821B821E821D8218861F8251
:100FB00088EC90E09A8789870FEF10E04AE050E0D4
:100FC000B801CE0101960E94B729065F1F4F073274
:100FD000F1E01F0799F78E01055F1F4F8AE0F801C6
:100FE00011928A95E9F74AE050E067E271E0C801A2
:100FF0000E94B7294AE050E061E371E0C8010E9415
:10100000B729D0920301C092020164960FB6F894FA
:10101000DEBF0FBECDBFDF91CF911F910F91FF902B
:10102000EF90DF90CF90BF9008950F931F93CF93D1
:10103000DF9381111CC06C30D0F44930C0F4C42F50
:10104000D0E0CC0FDD1F22E1629FC00DD11D112425
:10105000CE0187960E94852990E0182F0027CE01A7
:1010600088960E9485299801282BC90102C080E03A
:1010700090E0DF91CF911F910F910895462F20911D
:10108000620230916302232B91F47E3F39F46E3F6C
:1010900071F480917F01909180010895811107C0C2
:1010A0007C3028F4693018F4672F0C94150880E020
:1010B00090E008958F929F92AF92BF92CF92DF926D
:1010C000EF92FF920F931F93CF93DF93CDB7DEB7CD
:1010D0002A970FB6F894DEBF0FBECDBF09E811E026
:1010E000E12CF12C8BE8C82E8EE0D82E96EBA92EA1
:1010F0009EE0B92E29EB822E2CE0922EF801D182AF
:10110000C082B382A28295828482F58AE48ABE017B
:101110006F5F7F4F8E2D0E945007892B29F48985A0
:101120009A85F801938B828BFFEFEF1AFF0A0A5E14
:101130001F4F84E0E816F10409F72A960FB6F894D9
:10114000DEBF0FBECDBFDF91CF911F910F91FF90FA
:10115000EF90DF90CF90BF90AF909F908F900895C9
:101160000E94851D20912602211104C02091270292
:10117000222321F0909323028093220220912802BF
:10118000211104C020912902222321F090932002F2
:1011900080931F02E0911B02F0911C02309749F0EE
:1011A00082E0809324020480F581E02D84E292E0C5
:1011B00009940895803F39F48091270287FF6AC01F
:1011C0001092270267C0813F29F4809127021816E8
:1011D000BCF360C090912602823F29F497FF5AC069
:1011E0001092260257C0833F19F41916CCF352C04F
:1011F00090912802893F31F419160CF04BC01092DF
:10120000280248C08A3F19F497FF44C0F8CF8B3FAB
:1012100039F48091290287FF3DC0109229023AC01B
:101220008C3F29F4809129021816BCF333C0843F07
:1012300021F4809125028E7F17C0853F21F4809193
:1012400025028D7F11C0863F21F4809125028B7F7E
:101250000BC0873F21F480912502877F05C0883F1E
:1012600031F4809125028F7E8093250213C08D3F3B
:1012700021F480916C028E7F0BC08E3F21F480910F
:101280006C028D7F05C08F3F29F480916C028B7FAB
:1012900080936C0280912602811106C08091270202
:1012A000811102C01092210280912802811106C092
:1012B00080912902811102C010921E02089580912E
:1012C0006C0280FD16C081FD16C082FD18C08091A1
:1012D0001E02882391F0883290F428E0829FC0019A
:1012E000112468E270E00E94CF29862F672B29F035
:1012F00007C082E0089584E0089581E0089588E0C1
:10130000089580916C0280FD14C081FD14C082FD9F
:1013100016C080912102882381F0843180F422E379
:10132000829FC001112464E170E00E94CF29862FC2
:1013300008958CE0089589E1089585E0089582E399
:101340000895803F21F40E948109819504C0813F66
:1013500029F40E948109809327020895823F21F495
:101360000E948109819504C0833F29F40E9481096C
:10137000809326020895893F19F40E945F0905C0F1
:101380008A3F31F40E945F09819580932802089575
:101390008B3F21F40E945F09819504C08C3F29F4A2
:1013A0000E945F09809329020895843F21F480916F
:1013B0002502816017C0853F21F48091250282605B
:1013C00011C0863F21F48091250284600BC0873FC5
:1013D00021F480912502886005C0883F31F4809116
:1013E000250280618093250208958D3F21F480912C
:1013F0006C0281600BC08E3F21F480916C02826090
:1014000005C08F3F29F480916C02846080936C0248
:101410000895F894E82FE295EF70F0E031A1282FBD
:101420002F7081E090E001C0880F2A95EAF7982F8D
:101430009095932391A392A1892B82A378940895E8
:10144000CF93DF930E943E08EC018238910559F159
:10145000A0F48133910509F473C040F489329105F9
:1014600009F467C08A9709F472C084C08533910576
:1014700009F458C0C997B9F07DC0833E910571F158
:1014800038F4803E9105B1F0823E910511F172C0B1
:10149000863E9105B9F1873E9105C9F1843E9105DB
:1014A00009F068C024C08091010280FD5DC081FD0B
:1014B0005BC060C08091010280FD50C0809102023B
:1014C00080FF49C18091010284FD43C1C3EED0E099
:1014D00042C18091010282FF3EC1F4CF809101029E
:1014E00082FD3FC08091020280FD3EC0EBCF809123
:1014F000020281FF30C18091010284FD2AC1C7EE42
:10150000D0E029C18091010283FF25C1F4CF8091F1
:10151000010283FD2CC08091020281FFECCFC4EE5A
:10152000D0E019C18091010285FF15C1C9E2D0E068
:1015300012C18091010285FF0EC1C5E3D0E00BC14D
:101540008091010286FF07C1CAE2D0E004C1809108
:10155000010286FF00C1C1E3D0E0FDC0C9E3D0E0D5
:10156000FAC0C2EED0E0F7C0C0EED0E0F4C0C6EEE4
:10157000D0E0F1C0C11581E5D80708F066C0C115FB
:1015800020E5D207E0F0CE0174E0969587957A9534
:10159000E1F783709C2F937021E030E002C0220FAE
:1015A000331F9A95E2F73C68382BCF70C695C695E5
:1015B00040E2C49FE0011124C22BD32BCCC0C83E13
:1015C000D10560F5C03ED10508F0C5C0C83AD105C7
:1015D000B0F4C53AD10540F0C55AD0E0C55CDE4F45
:1015E000C881D0E0D064B7C0C130D10509F4B3C020
:1015F00008F4AFC0C430D10508F4ABC0ACC0CF3BD9
:10160000D10508F0A6C0C85AD0E0CC0FDD1FC25CDF
:10161000DE4F0990D881C02DD4649DC0C11540E231
:10162000D40758F4C11581E0D80708F094C0C03F32
:10163000D10508F48EC0D0658EC0C11520E4D20754
:1016400008F487C0DF70D06A86C0C11545E5D407AD
:1016500008F042C0C11584E5D80728F0DC2FCC275C
:10166000C46FD06A78C0C11523E5D207B0F0CE01AF
:101670008370992721E030E002C0220F331F8A9542
:10168000E2F78C2F8695869540E2849FC001112455
:10169000E901C82BD92BDA685EC0C11542E5D40731
:1016A00028F4DC2FCC27C16FD06A55C0CE018370DF
:1016B000992721E030E002C0220F331F8A95E2F71C
:1016C0008C2F8695869540E2849FC0011124E90104
:1016D000C82BD92BDC683FC0C11589E5D807B8F401
:1016E000C11528E5D20728F0DC2FCC27C06FD06ABF
:1016F00032C0C11546E5D40760F58C2F0E94C304A3
:101700008F71C82FD0E0DC2FCC27D06224C0C11548
:101710008AE5D80780F48C2F8F700E94C30494E070
:10172000D695C7959A95E1F7CF70D0E0DC2FCC27FE
:10173000D069C82B10C0CE0190568115904248F454
:101740008D2F8F710E94C304DD27D0628F71D82B3B
:1017500002C0C0E0D0E0CE01DF91CF910895809526
:1017600080FF02C02A9A01C02A9881FF02C02B9AEA
:1017700001C02B9882FF02C02F9A08952F980895D8
:10178000AF92BF92CF92DF92EF92FF920F931F938F
:10179000CF93DF93EC018AE0A82E2881222309F45D
:1017A00097C0213009F041C08981813039F48E0120
:1017B0000E5F1F4F8A810E949E2808C0823041F42C
:1017C0008E010E5F1F4F8A810E94FA27E8017EC0BA
:1017D000833039F48E010E5F1F4F8A810E949A2751
:1017E000F5CF843011F0219671C02A81229680E0D5
:1017F00090E030E0205331092A30310558F4A89E9A
:10180000A001A99E500D1124C901840F951F219696
:101810002881EFCF009709F459C0EFE9FFE0319735
:10182000F1F700C000000197F5CFE22FF0E0E05C97
:10183000FE4FB490822F86958695869590E0FC01A8
:10184000E05DFE4FE4902770F12C022E02C0F5946B
:10185000E7940A94E2F7F1E0EF22FF24FC01E05E56
:10186000FE4FC490D12C022E02C0D594C7940A9486
:10187000E2F731E0C322DD24FC01E05FFE4F04917A
:1018800010E002C0159507952A95E2F7017011271F
:10189000E114F10419F081EE0E94FA27C114D10479
:1018A00019F086EE0E94FA278B2D0E949E28CD28E3
:1018B00019F086EE0E949A27EF2819F081EE0E9417
:1018C0009A27012B19F08CE20E949E28219665CF61
:1018D000DF91CF911F910F91FF90EF90DF90CF900C
:1018E000BF90AF900895CF93DF93EC010E949A27A9
:1018F000CE01805E9109089710F0209719F463E9F2
:1019000077E202C064E777E2CE01DF91CF910C94D9
:101910000605CF93DF9300D000D01F92CDB7DEB77E
:101920009093800180937F01811520E2920748F413
:101930000F900F900F900F900F90DF91CF910C941C
:10194000730C8EEF89838A831B820E94851D8160C0
:10195000782F9D838C8349815A816B818D810E9470
:1019600033050F900F900F900F900F90DF91CF9154
:1019700008950F931F93CF93DF938C01EB0165E7DD
:1019800071E08C2F0E945007892B09F046C08FE32D
:101990009CE90197F1F700C00000DD27CF58DE4F2A
:1019A0008881F80110821882833079F048F4813000
:1019B00041F1823091F5809177019091780109C0D1
:1019C000843051F08530E9F028C080917901909100
:1019D0007A010097B1F01BC080917B0190917C014E
:1019E0000097A9F4209175013091760180917701DB
:1019F000909178012115310541F0009741F4C9011A
:101A000006C08091750190917601009731F0DF91C9
:101A1000CF911F910F910C94890CDF91CF911F9161
:101A20000F910895CF93DF93EC01805E91090897A1
:101A300010F0209719F469E877E202C06FE777E2C7
:101A4000CE010E9406058C2FDF91CF910C94FA27CE
:101A5000CF939091EF019923C9F0882311F0C0E052
:101A600003C01092EF0112C08091EF01C817C8F7B0
:101A7000EC2FF0E0EE0FFF1FEF51FE4F80819181C0
:101A80000E94120D0E946F1ECF5FEECFCF9108957E
:101A90007F928F929F92AF92BF92CF92DF92EF92FE
:101AA000FF920F931F93CF93DF9307E111E023E0A1
:101AB000C22E22E0D22E3BE1A32E32E0B32EE6016D
:101AC000712C88248394912CB801D8018C91F894BE
:101AD000E82FE295EF70F0E021A18F70A40102C021
:101AE000440F551F8A95E2F7CA01922F982B91A3B4
:101AF00092A18095892382A3789400C0E3E2F1E06B
:101B000020E030E0E12CF12C4191842F82958F7000
:101B100090E0DC0190968C9190E04F7002C095951A
:101B200087954A95E2F780FD08C0C401022E02C0E5
:101B3000880F991F0A94E2F702C080E090E0E82A3B
:101B4000F92A2F5F3F4F29303105F1F60F5F1F4F04
:101B5000FB0180810E94090AF0EAFA95F1F7888179
:101B60009981E816F90621F0F982E88281E001C046
:101B700080E0782A2296AC16BD0609F0A5CF772022
:101B800049F081E0809370010E94851D90936F0160
:101B900080936E01809170018823A9F080916E017D
:101BA00090916F010E94761D069768F0E6E4F2E0DE
:101BB000D6018D919D916D0181939193AA16BB06DB
:101BC000B9F710927001809100018F3F41F1F12C23
:101BD00096E1E92E1AC0E09EF001E19EF00D11247D
:101BE000E757FE4FC288D388C114D10419F488EC9A
:101BF000C82ED12CE09EE001E19ED00D1124C757E4
:101C0000DE4F8E81811110C0F3940F2D10E0809172
:101C10000001082E000C990B80179107E4F68091C3
:101C20000101811118C027C08D859E850E94761DF7
:101C3000C816D90648F78989811103C0CE010E94D0
:101C40003A06E09EC001E19E900D112481579E4FFF
:101C50000E945B06D9CF8091F0019091F10100972D
:101C600051F00E94761D893C910528F081E00E9488
:101C7000280D0E94A606872DDF91CF911F910F910D
:101C8000FF90EF90DF90CF90BF90AF909F908F909C
:101C90007F900895CF93DF9300D000D01F92CDB7EF
:101CA000DEB79093800180937F01811520E2920737
:101CB00048F40F900F900F900F900F90DF91CF91FD
:101CC0000C94120D8EEF89838A8381E08B830E94AE
:101CD000851D8160782F9D838C8349815A816B811A
:101CE0008D810E9433050F900F900F900F900F90F1
:101CF000DF91CF910895CF93DF93EC010E944A0EBC
:101D00008FE39CE90197F1F700C00000CE01DF915D
:101D1000CF910C94890C0F931F93CF93DF938C0179
:101D2000862F65E771E00E945007892BD1F4C0919E
:101D30007501D09176012097A1F0F8018081833060
:101D400039F4CE010E947B0ECE010E947B0E02C0B0
:101D5000843038F0CE01DF91CF911F910F910C9418
:101D60007B0EDF91CF911F910F9108950F931F93D9
:101D7000CF93DF938C01EB0165E771E08C2F0E941C
:101D80005007892B09F06DC0DD27F8018081813073
:101D900041F49185911115C09285992391F082E0CB
:101DA00010C0823049F4F8018185811107C0828515
:101DB000811106C083E005C086E003C085E001C054
:101DC00084E0CF58DE4F88838330B1F028F481302F
:101DD00071F0823031F045C08430A9F0853079F15E
:101DE00040C080917701909178010097A1F5809192
:101DF00075019091760120C08091790190917A01CE
:101E00000097E9F028C080917B0190917C010097B8
:101E100011F58091750190917601009749F00E942B
:101E20007B0E8091770190917801009781F013C02B
:101E30008091770190917801009799F00CC0809182
:101E4000750190917601009761F00E947B0E809160
:101E5000750190917601DF91CF911F910F910C94B4
:101E60004A0EDF91CF911F910F9108952F923F92CB
:101E70004F925F926F927F928F929F92AF92BF929A
:101E8000CF92DF92EF92FF920F931F93CF93DF9346
:101E9000CDB7DEB769970FB6F894DEBF0FBECDBFE2
:101EA000FC018081918123813481232B31F09F3F7C
:101EB00031F491E08F3F19F403C091E001C090E04C
:101EC00090FD81C76F0185E0DE01559601900D926E
:101ED0008A95E1F7D60112962C918D899E8922234D
:101EE00049F00E94F01E182F682F8D899E890E944C
:101EF000961F03C00E94661F182F6D897E89812F4F
:101F00000E943E088C01F6018281811106C0D60133
:101F100012964C91411141C0C1C0809100018F3F88
:101F2000B1F369E8E62E61E0F62EA12CB12C9924DC
:101F3000939480910001082E000C990B8A159B0543
:101F400034F3F7018681882309F18185928508178A
:101F5000190739F4809187019091880108171907B2
:101F6000A9F0D7011F969C921F971C961C930E9365
:101F70001B9751968C91811103C0C7010E943A06AC
:101F8000C70106960E945B061092F002BFEFAB1AE3
:101F9000BB0AE6E1EE0EF11CCCCFC80182519F4591
:101FA000409708F094C08FEF93E00E94852981113B
:101FB0007FC05EEEF52EF00E0BE311E0FF2071F016
:101FC0000115F4E01F0709F473C0C8010E948529B8
:101FD000811101C0FA940F5F1F4FF0CF19821A824E
:101FE0001B821C82AA24AA9478012FEFE21AF20A1B
:101FF000C8010E94852989831A82882309F458C060
:10200000813009F046C0480132E0830E911CC701BF
:102010000E9485298A83882309F44AC09FEF980F7C
:10202000933060F4780143E0E40EF11CC4010E9497
:1020300085298B8381112DC08701D6CF843011F083
:102040007401FACFC4010E948529B82E780154E0AA
:10205000E50EF11CC80103960E948529BB2041F1C1
:10206000882331F1282F30E021503109A29EA001B0
:10207000A39E500D11248B2D90E00197840F951F86
:102080000197D0F2AFE9BFE01197F1F700C000006F
:10209000F7CFCE0101960E94C00BCECF0031FFE5F5
:1020A0001F0709F087C681E00E94CD1F0E94802291
:1020B0008091EE02877009F486C6D60112968C9143
:1020C000882309F480C682E00E94F21F7CC600319A
:1020D000BFE51B0711F481E005C00131EFE51E07E4
:1020E00021F482E00E940F20E1CFC80197558F3F75
:1020F000910511F008F04AC020910001022E000C59
:10210000330B2817390714F48093000126E1289F28
:102110005001299FB00C1124F501E757FE4F7F01B4
:10212000408BD60112969C918681992329F11287C2
:1021300001878F5F86830E94851DF70196878587BB
:102140008091F40287839091F0028091F102892BB3
:1021500080870190F081E02DC50181579E4F309717
:1021600031F0D70154966D917C9155970995109354
:102170008801009387010AC0882341F08189882360
:1021800029F0C50181579E4F0E945B06073FFCE581
:102190001F0749F4D60112968C91882321F181E022
:1021A0008093010187C1083FBCE51B0771F4F6016C
:1021B00082818823C1F0109201011092F1011092E6
:1021C000F00181E00E94280D75C1093FFCE51F0761
:1021D00051F4D60112968C91882329F08091010147
:1021E0008823E9F2E8CF8090010181102DC0033FE0
:1021F000BCE51B0709F443C1A8F4083DFCE51F0733
:1022000009F437C1093D2CE5120709F44AC1073D1D
:102210003CE5130709F04EC106E221EE41EE67ED01
:102220007CE544C1053F4CE5140709F434C108F4CA
:102230002CC1063F8CE5180709F03CC107E225EEEA
:1022400046EE66EF7CE532C11092F4011092F30184
:10225000512C35E0432E66246394712C332433943F
:10226000A090F301B090F401F2E0AF16B10408F0D1
:10227000CCC04A9CF0014B9CF00D1124E950FE4F5C
:10228000BE01655F7F4F80810E943B07892B11F063
:10229000912CB0C0FE013B9680E090E022242A946D
:1022A000282F419151914115510551F004171507FF
:1022B00009F4282E01968430910591F724E002C09C
:1022C000823030F39FEF291619F3D60112969C90B5
:1022D000992009F444C04A9CC0014B9C900D1124E4
:1022E000FC01E950FE4F7F01C30101C0880F2A9411
:1022F000EAF79481892B8483A30102C0440F551F00
:102300002A95E2F79A012150310990E08F7728173A
:10231000390709F06EC080E00E94280DD70114969D
:102320008C911497806814968C93149712968D91C3
:102330009C911397009719F00E94120D0DC0BE01D9
:102340006F5F7F4F8091F3010E943B07892B21F43F
:1023500089859A850E944A0E3092F2014BC0F301A2
:1023600002C0EE0FFF1F2A95E2F79F0121503109AD
:102370004A9CF0014B9CF00D1124E950FE4F8481E2
:1023800090E08F7728173907A1F482819381009715
:1023900019F00E94730C0DC0BE016F5F7F4F8091DA
:1023A000F3010E943B07892B21F489859A850E94BD
:1023B000890C4A9CF0014B9CF00D1124E950FE4F12
:1023C0009481292F30E0022C02C0359527950A947C
:1023D000E2F720FF5DCF930101C0220F2A94EAF7B4
:1023E000822F80958923848387FF52CF803809F418
:1023F0001482982C59288091F3019091F401019650
:102400009093F4018093F3012BCF8091F201882304
:1024100059F00E94851D9093F1018093F001109274
:10242000F201511045CEE3CE511006C081E00E946A
:10243000280D0E94A606DBCED60112968C91882329
:1024400009F436CE0E94851D9093F1018093F0012E
:10245000E091EF01E73008F02BCE81E08E0F809302
:10246000EF01F0E0EE0FFF1FEF51FE4F11830083ED
:102470001FCE07E225EE45EE68ED7CE517C006E2CB
:1024800021EE40EE63EF7CE511C007E225EE44EE5D
:1024900064EF7CE50BC006E221EE42EE65EF7CE5E1
:1024A00005C008E221E045EE69ED7CE5C6010E9429
:1024B000B806FECDF6018281882309F43EC1109250
:1024C000F5010230FCE51F0708F421C106312CE5B7
:1024D000120730F0C8018A5F9C45099708F017C1C0
:1024E0000E94E11D909302028093010200313CE5BD
:1024F000130709F4C3C008F041C008305CE51507B4
:1025000009F49AC0F0F404309CE5190709F487C077
:1025100068F40230BCE51B0709F477C003301C45A2
:1025200009F0E5C080910102826076C00630FCE5CA
:102530001F0709F46EC008F07BC08091010288601B
:102540006BC00C303CE5130709F485C068F40A3011
:102550005CE5150709F474C008F079C00E94752283
:1025600080910102806858C00E309CE5190709F47B
:1025700076C008F07FC0809101028BC00B3FBCE5A4
:102580001B0709F44FC018F50331FCE51F0709F4D8
:102590007DC078F401313CE5130709F473C00231C2
:1025A0001C4509F0A4C00E947522809101028F771A
:1025B00033C005315CE5150709F472C008F486C024
:1025C0000A3F1C4509F093C0809102023EC00F3FB4
:1025D000ACE51A0709F45FC058F40D3FECE51E079F
:1025E00009F444C008F43FC08091020282602DC00B
:1025F00001302DE5120709F475C008F45DC0023002
:102600001D4509F074C060E06EC0809101028160D8
:1026100003C08091010280618093010268C08091B3
:10262000010211C0809102028260809302025FC0A9
:10263000809101028062F0CF809101028064ECCF32
:102640008091010288608460E7CF8160EECF809145
:1026500001028E7FE1CF809101028D7FDDCF8091DD
:102660000102877FD9CF8091020218C080910202B7
:102670008D7FDBCF809101028F7ECECF80910102D2
:102680008F7DCACF809101028F7BC6CF80910102DE
:10269000877F8B7FC1CF809102028D7F8E7FC5CFD8
:1026A0008091010282FB222720F991E0922790FB82
:1026B00082F990FB83F9B0CF80910202982F909518
:1026C00091708E7F892B90FB81F9AFCF0E9475228C
:1026D0008091010287FB222720F991E0922790FB4D
:1026E00087F99ACF61E08EE090E00E949329609193
:1026F00001021091020284E090E00E949329612F70
:1027000082E290E00E9493290E947522D1CC06318A
:10271000FCE51F0711F58091F1028A7A91E009F436
:1027200090E09093F601882311F065E301C069E21F
:1027300084E692E00E94C71D0DC006311C45F1F5EC
:102740008091F601882309F43CC365E384E692E0B6
:102750000E94BA1D0E946F1EABCC0A355DE51507BD
:1027600041F150F401159CE51907A9F00E3D1C45F7
:1027700029F50E94F21D9CCC0B35BDE51B07D9F055
:102780000C351D45D9F48091020282FB882780F91F
:1027900091E0892711C00E947522FFEF04E31CE03D
:1027A000F15000401040E1F700C000000E942C1DD5
:1027B0007FCC81E001C080E00E94C91ED601129644
:1027C0008C9112970D911C91882349F0C8010E94A9
:1027D000F01EF82E682FC8010E94961F04C0C80181
:1027E0000E94661FF82EB8018F2D0E94200A8C01CE
:1027F000982EF601E280F580F2949FE0F922809114
:10280000EE02877099F0EE2089F0812F807F80346E
:1028100021F080E2800F883048F082E00E94F21FB1
:102820008091EE028770BB24B3948111B12CA12E4C
:10283000A2948FE0A8228A2D90E08C30910508F0B8
:1028400099C2FC01EA5AFF4F0C94E329812F807F43
:102850001F70882311F01295107FEE20B9F011231C
:1028600009F463C280E2800F883010F0911006C036
:102870008091F102182B1093F10205C08091F002B3
:10288000182B1093F0020E946F1E4FC2802F0E94DF
:102890009A27112309F46EC2005E083010F09110DF
:1028A00004C0812F0E94681E06C010958091F0021E
:1028B00018231093F0020E946F1E5CC2812F807F4C
:1028C0001F70803211F01295107F992029F0F1E0ED
:1028D0009F1609F443C04EC0EE2051F1FF2011F1C4
:1028E00001E0F01213C08091020282FD43C2809188
:1028F000F402182B181709F43DC20E94851D90930D
:10290000F3028093F2021093F40234C225E0F21233
:1029100009C00E945D1E8091EB021817C1F110934F
:10292000EB0235C08091F402812B0E94892722C2DC
:10293000FF2051F031E0F3120DC08091F1028123AC
:1029400009F418C20E94EA1E0E945D1E812F0E9497
:10295000932710C245E0F412F7CF0CC2EE2029F005
:1029600055E05F1508F406C212C084E08F1508F424
:1029700001C2ECCFEE2069F0FF2049F0D601159698
:102980008C91159780FFD1C18F7015968C93812FF4
:10299000CCCFFF20D9F2093341F4BFEFE7EEF3E0EB
:1029A000B150E040F040E1F7D9C18FE39CE90197D5
:1029B000F1F7D4C1812F86958695837019F0813007
:1029C00059F0D8C1EE2019F0C801937002C080E020
:1029D00090E00E941806CEC1EE2019F0C801937055
:1029E00002C080E090E00E940206C4C1802FEE2069
:1029F00029F00E94A1090E94B00802C00E94DA08D2
:102A00000E94B008B7C1812F837009F070C0E11037
:102A1000B1C1202F229526952770220F220F602FFB
:102A20006F70862F90E0A0E0B0E02C013D01022EF7
:102A300004C0440C551C661C771C0A94D2F704FF92
:102A400012C08FE090E0A0E0B0E004C0880F991FB2
:102A5000AA1FBB1F2A95D2F7AC01BD014095509526
:102A60006095709503C040E050E0BA01812F8695D3
:102A7000869583708230E9F088F50091F502109117
:102A8000F6022091F7023091F802813069F0D3010B
:102A9000C201842B952BA62BB72BBC01CD01602343
:102AA00071238223932320C0402A512A622A732A49
:102AB00015C0D301C201842B952BA62BB72B0091F7
:102AC000F5021091F6022091F7023091F802BC0154
:102AD000CD01602771278227932706C0CB01BA0159
:102AE00064297529862997290E94462043C1EE2032
:102AF00019F0812F817001C08695882309F43AC1AD
:102B0000202F229526952770220F220F602F6F709D
:102B1000862F90E0A0E0B0E02C013D01022E04C021
:102B2000440C551C661C771C0A94D2F704FF12C093
:102B30008FE090E0A0E0B0E004C0880F991FAA1FCA
:102B4000BB1F2A95D2F7AC01BD0140955095609509
:102B5000709503C040E050E0BA01812F86958695BC
:102B600083708230E9F088F5009110031091110311
:102B70002091120330911303813069F0D301C20117
:102B8000842B952BA62BB72BBC01CD016023712381
:102B9000822393238EC0402A512A622A732A15C0A9
:102BA000D301C201842B952BA62BB72B00911003C8
:102BB000109111032091120330911303BC01CD0138
:102BC000602771278227932774C0CB01BA0164293B
:102BD0007529862997296DC01F70EE2029F0812F55
:102BE0000E940F20802FA1CE802F0E949327812F3B
:102BF000BDC0802F92EF991609F441C0991538F0A5
:102C0000A0EF9A1661F0B1EF9B1699F18AC0E3EF3D
:102C10009E16D9F1F4EF9F1609F44EC082C0EE2043
:102C200029F004E00F1508F4A5C004C025E02F1515
:102C300008F4A0C01F7181E090E0A0E0B0E0AC011A
:102C4000BD0104C0440F551F661F771F1A95D2F7A8
:102C50008091100390911103A0911203B09113037E
:102C60008A019B01082719272A273B27C901B80198
:102C700020C0812F8F71EE2009F478C05CC0812FB5
:102C80008F71EE2009F457C071C0EE2079F01F71EA
:102C900081E090E0A0E0B0E0BC01CD0104C0660F8F
:102CA000771F881F991F1A95D2F703C060E070E064
:102CB000CB010E94C31F5EC0EE20D9F08091EB02D1
:102CC0000E94681E8091EE028770843039F40E9461
:102CD000E31E812F8F710E94CD1F4BC024E02F1562
:102CE00008F447C01F71812F0E940F2063E0812FDD
:102CF00011C09091F1028091EB02892B8093F10237
:102D000034E03F1550F40E94E31E0E94EA1E64E086
:102D1000812F8F710E9430202CC081E00E94F21F11
:102D200028C0EE2059F0FF2021F0802F0E94FA27C2
:102D300021C0812F8F710E940F201CC0FF20A1F0A5
:102D4000893341F44FEF57EE83E0415050408040CB
:102D5000E1F704C0AFE3BCE91197F1F700C0000050
:102D6000802F0E949A2706C0812F8F710E94CD1F4D
:102D700001C0B12C88EF8A0D843020F40E942E0609
:102D80000E94AF0BBB20F9F08091EE0280FD1BC0CA
:102D9000F60112828595859585950E940F20C601C2
:102DA0000E94360F8091EE028595859585950E944B
:102DB000CD1F09C001312FE5120709F096C982E045
:102DC00073C969E2C3CC69960FB6F894DEBF0FBE33
:102DD000CDBFDF91CF911F910F91FF90EF90DF90CA
:102DE000CF90BF90AF909F908F907F906F905F90AB
:102DF0004F903F902F900895CF93DF93CDB7DEB7DC
:102E0000E4970FB6F894DEBF0FBECDBF84B7877FBF
:102E100084BF0FB6F894A895809160008861809374
:102E20006000109260000FBE90E080E80FB6F8944A
:102E300080936100909361000FBE85B7806885BF65
:102E400085B7806885BF85EA9CE190936D0180938A
:102E50006C010E945A081092F8011092F70181E06B
:102E600090E09093FD018093FC010E94C0250E9498
:102E7000DF258091E20084608093E2007894809165
:102E800006038823A1F01091E9001F709091EC00D7
:102E9000892F817090FD80E8182B1092E9008091B5
:102EA000E80083FD0E949E221F701093E90082E0DB
:102EB00084BD93E095BD9AEF97BD80936E0007E1C6
:102EC00011E0A3E2EA2EA1E0FA2EF80181918F0130
:102ED0000E94090AE016F106C1F703E211E0F801C9
:102EE00081918F010E94090AF1E00C321F07B9F7A6
:102EF000E3E0F2E0A6E4B2E0119211921D921D927D
:102F000022E0EB31F207C1F780E090E00E948D29CA
:102F10008A3E9E4F11F00E94F21D82E090E00E94D6
:102F2000852980932B020E94E11D909302028093D9
:102F300001020E94480D8FE39CE90197F1F700C060
:102F400000000E94480D8091460280FF17C06FEF7D
:102F500083E290E00E9493296FEF84E290E00E9468
:102F600093296FEF85E290E00E9493296FEF7FEF46
:102F700080E090E00E94B1290E942C1D83E090E047
:102F80000E948529682F70E080E090E00E94462032
:102F9000229A2A9A239A2B9A279A2F9A83E290E0D0
:102FA0000E948529873981F484E290E00E94852976
:102FB0008D3551F485E290E00E94852991E08C30B6
:102FC00009F090E0892F01C080E080FF98C484E080
:102FD00091E090931C0280931B0268E1662E712C95
:102FE00070E4372EE0E14E2EF0E15F2E8E010F5F90
:102FF0001F4F6E0199E1C90ED11C809106038530E7
:1030000009F048C052E1F52E80910603853009F0A1
:103010003BC080910603843021F180E00E94AF0B19
:1030200010921D020FB6F894A895609260000FBE32
:103030003092600083B7817F846083BF83B78160F3
:1030400083BF7894889583B78E7F83BF0FB6F8943B
:10305000A895809160008861809360001092600064
:103060000FBE80910503882309F4CECF0E94480D3E
:10307000E6E4F2E081919191892B09F021C422E0EC
:10308000EE35F207B9F7C0CF0E9475220E942E06D6
:103090000E94AF0B0E94480D882359F08FB7F89417
:1030A00040915E0250915F026091600270916102F6
:1030B0008FBFACE2B2E0E6E4F2E0E12CF12C7E2D31
:1030C000219131918D919D9182279327009779F1DC
:1030D00060E0AA24A394B12CAC014A215B21452BCA
:1030E00009F16BA77CA72A213B2181E0232B09F45E
:1030F00080E08DA70E94851D8160782F9FA78EA7F5
:103100004BA55CA56DA58FA50E943305F701EE0FB9
:10311000FF1FE45DFD4F80819181A826B926B18211
:10312000A0821CC06F5FAA0CBB1C6930A9F63FEFE0
:10313000E31AF30A4CE0E416F10409F68FEF88ABCA
:1031400089AB1AAA0E94851D8160782F9CAB8BAB3E
:1031500048A959A96AA98CA90E94330586E0E4E22E
:10316000F2E0D80101900D928A95E1F7A090260235
:10317000B0902702E0902802F090290210922602D7
:10318000109227021092280210922902A11003C067
:10319000BB2009F451C080912202909123020E9429
:1031A000761D9C0190912102992309F4C1C3233318
:1031B000310508F441C09F3F19F09F5F90932102B1
:1031C000AA2061F00E9481091A1414F491E001C050
:1031D0009FEF899F802D112480932602BB2061F0F0
:1031E0000E9481091B1414F491E001C09FEF899F94
:1031F000802D112480932702309126023323E1F0A1
:10320000209127022223C1F045EB3403C001112491
:10321000992319F09093260203C081E0809326023F
:1032200035EB2303C0011124992319F09093270251
:1032300003C081E080932702E11003C0FF2009F45E
:1032400051C080911F02909120020E94761D9C0126
:1032500090911E02992309F470C32536310508F4B4
:1032600041C09F3F19F09F5F90931E02EE2061F0D6
:103270000E945F091E1414F491E001C09FEF899F22
:10328000802D112480932802FF2061F00E945F09A5
:103290001F1414F491E001C09FEF899F802D112429
:1032A00080932902309128023323E1F020912902F2
:1032B0002223C1F045EB3403C0011124992319F0F6
:1032C0009093280203C081E08093280235EB23030A
:1032D000C0011124992319F09093290203C081E0C1
:1032E000809329028091260281110BC080912702D0
:1032F000811107C080912802811103C080912902A9
:1033000081110E94B008AB82BC82ED82FE8286E011
:10331000F801A4E2B2E001900D928A95E1F70E94D3
:103320002E0690912A02891731F00E942E06809372
:103330002A020E94AF0B80910603843009F05DCE13
:1033400083E08093E9008091E80082FF56CE80916F
:10335000E80085FF21C00E94152781111BC050E2A3
:10336000A52EB12C780109C08091F100F70181935D
:103370007F01F1E0AF1AB10869F08091E80085FDA6
:10338000F3CF8091E8008B778093E8000E941527A7
:10339000882399F391E001C090E08091E8008B7759
:1033A0008093E800992309F428CEE0906202F0901F
:1033B00063028981E114F10461F08E3F09F058C283
:1033C0008A81833008F448C18550833008F050C2A8
:1033D00043C1893009F44AC2F0F4843009F477C05B
:1033E00050F48230C1F108F063C0813009F03EC270
:1033F0001A8289E0B7C1863009F470C008F036C27D
:103400002D813E813227232732274C816B818A818F
:103410000E9465072DC2803109F4BFC080F48D3051
:1034200009F45FC028F48C3009F020C25A8220C20F
:103430008E3009F45AC08F3009F481C017C282312E
:1034400009F4B0C008F4ACC0833109F4D3C08E3F96
:1034500009F402C10BC28A81823009F447C2833069
:1034600089F0813009F002C22FB7F89480915E0292
:1034700090915F02A0916002B09161022FBFBB8367
:10348000AC832AC08091020190910301892B09F439
:10349000EFC1F801A6E4B2E08C9111969C911197CE
:1034A0001296928383833296CE16DF06A9F7E0C187
:1034B0008A81823009F0DAC16B817C818D819E81A5
:1034C0000E94E92986E290E00E949329D1C14C81B3
:1034D0006B818A810E9415089D830FC20E94960706
:1034E000C7C182E08A8385EC3DC1EA80FB80FE246F
:1034F000EF24FE248C80912C2DE18216910408F09B
:10350000B7C15801C701855C9E4F9501201B310B47
:103510002815390508F0ACC135ECE31632E0F306A6
:1035200028F40E948529F501848302C0F5011482E4
:10353000FFEFEF1AFF0A2FEFA21AB20AE3CF809132
:10354000020190910301892B09F492C1EA80FB806A
:10355000FE24EF24FE24AC80B12C3DE1A316B1047F
:1035600008F086C14801C701855C9E4F9401201B6D
:10357000310B2A153B0508F07BC145ECE41642E00F
:10358000F40620F4F40164810E949329FFEFEF1AFE
:10359000FF0A2FEF821A920AE6CF0E942B0768C11A
:1035A00081E011C1EA80FB80FE24EF24FE248C80A0
:1035B000912C3DE18316910408F05AC15801C701CE
:1035C00087969501201B310B2815390508F050C14D
:1035D00048EDE416F10428F40E948529F50184835E
:1035E00002C0F5011482FFEFEF1AFF0A2FEFA21AB3
:1035F000B20AE5CFEA80FB80FE24EF24FE24AC80F3
:10360000B12C3DE1A316B10408F032C148EDE41637
:10361000F10408F02DC188ED90E08E199F098A15FC
:103620009B0508F425C14801C70187969401201B1A
:10363000310B2A153B0508F01BC1E8EDEE16F1042D
:1036400020F4F40164810E949329FFEFEF1AFF0A2E
:103650002FEF821A920AE8CFEA818E2F90E08E3007
:10366000910508F005C1FC01EE59FF4F0C94E329C8
:1036700088E0EFE0F1E0DE01919601900D928A95ED
:10368000E1F780E2F80111928A95E9F784E08983F5
:1036900088E0FE01B196DE01159601900D928A95A3
:1036A000E1F7E6C084E4898382E08A831B821C827E
:1036B000DFC08C8190E0982F88272B81820F911D8D
:1036C000092E000CAA0BBB0B45E0880F991FAA1FFF
:1036D000BB1F4A95D1F7AC01BD01405E5F4F6F4FF4
:1036E0007F4F481759076A077B0708F4C1C0843425
:1036F000F2E09F07A105B10508F0BAC0453422E009
:1037000052076105710520F044E452E060E070E08A
:10371000481B590BBC01605E7A4FC8010E946C299E
:10372000A7C040E250E06FEF70E0C8010E94042A99
:10373000809102018983EA829BC081E090E09093AE
:1037400063028093620282E390E09093450280934B
:1037500044020E94851D8CC0809102018983EA8207
:10376000809144028B8384C040E250E06FEF70E0B0
:10377000C8010E94042A7CC08B81823031F1A8F4F8
:103780008823C9F0813009F073C08C812AE0B22E01
:103790007E01F1E2EF0EF11CF7012B2D11922A951B
:1037A000E9F7B7010E9450073EC0833069F18430C9
:1037B00009F442C05DC080E2F80111928A95E9F7F0
:1037C00084E0898382E08A8353C06C818AE0FE01B1
:1037D0003596DE01919601900D928A95E1F764305D
:1037E00070F43AE0639FB001112461507F4F4AE0CA
:1037F00050E0CE0181960E94B72980E001C08FEF92
:1038000089830E945A0834C08C819AE0B92E7E01C7
:1038100041E2E40EF11CF7012B2D11922A95E9F7F4
:10382000B7010E943B078983F701DE0112960190E0
:103830000D92BA94E1F71CC06C818AE0FE013596C6
:10384000DE01919601900D928A95E1F7623070F455
:103850003AE0639FB0011124695D7E4F4AE050E079
:10386000CE0181960E94B72980E001C08FEF898345
:1038700080910603843009F0C0CB8091E9008F70FD
:103880002091EC00922F917020FD90E8F92EF82AFB
:1038900082E08093E9008091E80080FF0CC040E066
:1038A00050E060E270E0C8010E9448278091E80083
:1038B0008E778093E8008F2D8F708093E9009DCBE9
:1038C00049BCF9BC09B400FEFDCF8091D8008F7DC2
:1038D0008093D8008091E00082608093E000809126
:1038E000E00081FDFCCF0E9475228ECB86E290E045
:1038F0000E9485291B821C821D828E83B9CF60E0C5
:1039000086E290E00E9493290E9496070E942B076E
:1039100067E983E290E00E9493296DE584E290E0FC
:103920000E9493296CE085E290E00E9493294FCB9E
:103930002D32314008F041CC7FCC2D32314008F09F
:1039400092CCD0CC8091FB02089580E00895CF9373
:10395000DF9300D01F92CDB7DEB79091060394306D
:1039600011F589837B836A839093E9008FEF9091AF
:10397000E800815095FD06C095ED9A95F1F700009D
:103980008111F5CF8091E80085FF0DC040E050E047
:1039900063E070E0CE0101960E9448278091E80024
:1039A0008E778093E8000F900F900F90DF91CF916A
:1039B0000895BC0184E00C94A71CBC0183E00C9426
:1039C000A71C24E02093E9002FEF3091E80021505C
:1039D00035FD06C035ED3A95F1F700002111F5CF20
:1039E0002091E80025FF0BC040E050E066E070E069
:1039F0000E9448278091E8008E778093E800089520
:103A0000CF93DF9321E02093E9002FEF3091E8007E
:103A1000215035FD06C035ED3A95F1F70000211132
:103A2000F5CF2091E80025FF14C0EC0140E050E004
:103A300068E070E00E9448278091E8008E778093CC
:103A4000E80088E0FE01ACEFB2E001900D928A95AB
:103A5000E1F7DF91CF91089581E08093E00080E26B
:103A60008093D8001092C9008FE19EE40197F1F78E
:103A700000C0000087E090EBDC018093140390937A
:103A80001503A0931603B09317039CE088E10FB6CB
:103A9000F894A895809360000FBE90936000FFCFCC
:103AA00078941F920F920FB60F9211248F939F93C9
:103AB000AF93BF9380915E0290915F02A0916002EC
:103AC000B09161020196A11DB11D80935E02909399
:103AD0005F02A0936002B0936102BF91AF919F918A
:103AE0008F910F900FBE0F901F9018959C014FB7AC
:103AF000F89480915E0290915F02A0916002B09173
:103B000061024FBF821B930B08952FB7F8948091E9
:103B10005E0290915F02A0916002B09161022FBF9E
:103B200008951F920F920FB60F9211248F939F93B7
:103B3000AF93BF9380911D02811113C080915E02EB
:103B400090915F02A0916002B09161024196A11D27
:103B5000B11D80935E0290935F02A0936002B093C8
:103B60006102BF91AF919F918F910F900FBE0F9007
:103B70001F9018959C012A5F3F4FFC01428146131C
:103B800001C01282019682179307B9F708959C012C
:103B9000FC0132969FEF80E04191461789F09F3FEC
:103BA00019F4411101C0982F8F5F8630A9F79F3F0C
:103BB00039F0F901E90FF11D97FDFA956283089537
:103BC0000895CF9384E090E00E948529C82F82E277
:103BD00090E00E9485292C2F30E0A901582BCA01C2
:103BE000CF9108956AEE7EEF80E090E00E94B129C7
:103BF00060E082E090E00E94932960E083E090E042
:103C00000E9493291092F5021092F6021092F70288
:103C10001092F80260E084E090E00E94932960E056
:103C200082E290E00E94932960E085E090E00E94AB
:103C3000932960E086E090E00E9493296FEF87E08F
:103C400090E00E94932940E050E0BA0188E090E0C3
:103C50000E94A52960E08DE090E00E94932940E059
:103C600050E0BA0188E190E00E94A52960E087E178
:103C700090E00E94932940E050E0BA018CE190E08E
:103C80000E94A52960E070E080E290E00E94B129E6
:103C900040E050E0BA0188E190E00E94A52940E0B0
:103CA00050E0BA018FE090E00E94A52940E050E08A
:103CB000BA0183E190E00C94A5298091F402882355
:103CC00031F01092F4021092F3021092F202089571
:103CD00080959091F10289238093F102089590914B
:103CE000F1028091F002892B9091EF02892B809351
:103CF00064028091F402882311F10E94851D2091B5
:103D0000F2023091F302821B930B8838934110F03A
:103D10000E945D1E909164028091F402892B809331
:103D20006402E6E6F2E097E080E0915029F021910C
:103D30002223D9F38F5FF9CF81110E945D1EE0919C
:103D40001B02F0911C02309731F00280F381E02DCC
:103D500084E692E00994089580E090E00E941806BD
:103D600080E090E00E9402061092F0021092EF02B2
:103D70000E946F1EE4E2F2E086E0DF011D928A9568
:103D8000E9F71092210210921E0210926C020C941C
:103D9000B008CF93C0910202C2FB992790F99817FF
:103DA00081F080FBC2F9C09302026091010284E0BD
:103DB00090E00E9493296C2F82E290E0CF910C94C6
:103DC0009329CF9108951092EE021092ED02109275
:103DD000EC0208958091EB0281111092EB0208959C
:103DE000BF92CF92DF92EF92FF920F931F93CF93E8
:103DF000DF938C01C0901003D0901103E090120368
:103E0000F09013038091F5029091F602A091F702D1
:103E1000B091F802C82AD92AEA2AFB2ACFE1D0E0D9
:103E2000D701C6010C2E04C0B695A7959795879526
:103E30000A94D2F780FD04C0219790F7B12C07C0F7
:103E4000BC2EB8018C2F0E94200A0197A9F38B2D5C
:103E5000DF91CF911F910F91FF90EF90DF90CF9066
:103E6000BF900895CF93DF93EC010E94F01EBE0136
:103E70000E94200ADF91CF9108950E94321F292FBE
:103E80002F70E92FE295EF704E2F50E0FA01329734
:103E9000EE30F105B8F4E059FF4F0C94E329803F70
:103EA00099F018F4883E70F40FC0843F59F40CC0A8
:103EB000883E50F0813F31F407C0822F8695869569
:103EC0008695089580E0089581E008959E3F61F110
:103ED00029E0929F800D1124682F6695669566955E
:103EE000982F977085E0689FB001112440E050E062
:103EF00080E0FB01E40FF51FEB55FD4F208130E022
:103F0000092E02C0369527950A94E2F721703327CF
:103F1000042E01C0220F0A94EAF7822B4F5F5F4FF5
:103F20004530510531F7089580E008959E3F51F1E5
:103F300029E0929F800D1124E82FE695E695E695FD
:103F4000877051E001C0550F8A95EAF785E0E89F38
:103F5000F0011124EB55FD4F20E030E070E040818E
:103F6000CB01022E02C0969587950A94E2F78170E4
:103F7000819584278523842781932F5F3F4F2530A8
:103F8000310569F7089560931003709311038093CE
:103F90001203909313030C94AC1E0F931F9341E0F4
:103FA00050E060E070E004C0440F551F661F771FAB
:103FB0008A95D2F740955095609570958091100341
:103FC00090911103A0911203B09113038A019B01F8
:103FD000082319232A233B23C901B8011F910F91FC
:103FE0000C94C31F2091EE02809582238093EE02F1
:103FF000982F977041F430E0482F082E000C550B95
:104000002417350721F49091020292FF07C085958D
:10401000859585950E94CD1F0C94E31E08950F93FE
:104020001F9341E050E060E070E004C0440F551F72
:10403000661F771F8A95D2F7809110039091110324
:10404000A0911203B09113038A019B01082B192B35
:104050002A2B3B2BC901B8011F910F910C94C31F50
:104060009091020292FD10C098E0899F9001112466
:10407000262B2093EE020E940F200E94851D909314
:10408000ED028093EC0208950C940F206093F502EA
:104090007093F6028093F7029093F8020C94AC1E92
:1040A0008091A40290917302891719F08F5F877035
:1040B000FBCF08950F931F93CF93DF9380917202EC
:1040C00082958F7009F05DC080916F02882309F49A
:1040D00058C08091A4021091730260916D0270919A
:1040E0006E02C0917002D091710291E06F3F09F0B1
:1040F00090E0292F06E0811709F443C0209721F0B2
:104100007F3F21F030E003C031E001C0322F90E06A
:1041100030FD34C0089FF001099FF00D1124DF012C
:10412000AC58BD4F11963C911197371327C03C9165
:10413000361324C012963C91129731111FC013966A
:104140004D915C9114974C1B5D0B483C5105B0F4AC
:10415000809172028F70806180937202E758FD4FE8
:1041600080818F70806180838DE692E00E94360F9F
:10417000DF91CF911F910F910C9450200196877081
:10418000BACFDF91CF911F910F9108959F92AF9277
:10419000BF92CF92DF92EF92FF920F931F93CF9334
:1041A000DF93CDB7DEB761970FB6F894DEBF0FBED1
:1041B000CDBF8C0185E0F801DE011D9601900D92C6
:1041C0008A95E1F7F80190818181E28030916D025A
:1041D00060916E024091700250917102411551053B
:1041E00031F06F3F31F421E03F3F19F403C021E08B
:1041F00001C020E0F22FF1709F2E20FD23C1F801B5
:10420000C380D4802DE6A22E22E0B22EF0906F0261
:10421000F601E41BF50BFF2009F4CEC020917202D9
:10422000E83CF10508F099C0422F407F09F051C0E9
:10423000681311C039130FC0FE2CE1100CC02F7091
:10424000206120937202C5010E94360F8091720294
:10425000F801858337C1CD2831F08F3F31F421E05B
:104260009F3F19F403C021E001C020E020FD03C0FE
:1042700021E02E2502C020E030E0F22FF170FF2E69
:1042800020FF1DC02091A4024091730256E0241724
:1042900009F4F6C030E0529FF001539FF00D112455
:1042A000EC58FD4F6181861306C06081961303C0F0
:1042B0006281E61204C02F5F3F4F2770E8CFFE2CCB
:1042C000EE2009F4FFC08091720281608093720237
:1042D00050C0681307C0391305C0E11003C0F801CE
:1042E00025838DC09D878E878D859E850E943D1F6D
:1042F000882369F1EE2059F120917202822F829574
:104300008F7090E0029774F080916D0290916E0230
:1043100098878F831986DB86CA862C87CE010796FD
:104320000E94360F86E0F801ADE6B2E001900D92F2
:104330008A95E1F70E945A200DC06817E1F09D8729
:104340008E878D859E850E943D1F81111EC0C801EC
:104350000E94360FFF24F394B5C0422F407F69F7C7
:104360008DE692E00E94360F86E0F50111928A9563
:10437000E9F7F12CA7C03913E2CFE110E0CFF80143
:104380002583C8010E94360F57C0EE2001F320910B
:104390007202822F82958F7090E002971CF28091BA
:1043A0006D0290916E029A8389831B82DD82CC829A
:1043B0002E83CE010196B4CFE83CF105E8F5FE2C42
:1043C000EE2029F2681327C0391325C0209172020C
:1043D00020FD18C0822F82958F70482F50E0411524
:1043E000510581F0F80125834F30510541F08F5F71
:1043F000982F9295907F822F8F70892B8583C8018B
:104400000E94360F86E0F801ADE6B2E001900D9211
:104410008A95E1F757C09D878E878D859E850E947E
:104420003D1F81117FCF8091720281608093720263
:10443000C8010E94360F46C086E0F50111928A95A8
:10444000E9F740C0EE2009F482CF9D878E878D85E5
:104450009E850E943D1FF82E882309F478CF86E0C0
:10446000F801ADE6B2E001900D928A95E1F78091F6
:104470006D0290916E020E94321F0E945A2022C04B
:104480009D878E878D859E850E94321F292F2295BC
:104490002F70223028F49F7039F0811105C00BC0B5
:1044A000243028F49F7049F4805E883020F0C801E1
:1044B0000E94360F9F2CF92C05C0F8019581907F42
:1044C00099F7F9CF8F2D61960FB6F894DEBF0FBE26
:1044D000CDBFDF91CF911F910F91FF90EF90DF90B3
:1044E000CF90BF90AF909F9008951092F10286E018
:1044F000E6E6F2E0DF011D928A95E9F70C94AC1E26
:104500000F931F938091100390911103A0911203B8
:10451000B09113038C019D010670112722273327C8
:10452000BC01CD01063011052105310511F468608B
:1045300001C0677F1F910F910C94C31F1F93CF93EE
:10454000DF93CDB7DEB7AA970FB6F894DEBF0FBEE4
:10455000CDBFE8E0F3E08091F100819343E0E031EA
:10456000F407C9F780910903833009F462C030F47D
:10457000813071F0823009F49CC0B3C08A3009F4F4
:1045800088C08B3009F46DC0893009F0AAC020C002
:1045900080910803813A09F0A4C08091E800877FE8
:1045A0008093E80080910C0390910D03892B21F4F6
:1045B00068E08CEF92E003C060E080E090E070E0A3
:1045C0000E940E298091E8008B778093E80089C0D3
:1045D00080910803813209F084C080910C0390918E
:1045E0000D03009719F0029709F07BC08091E80055
:1045F000877F8093E8008091E80082FD05C080916C
:1046000006038111F8CF6DC02091F3008091F20074
:1046100090E0922B029729F48091F1008B7F8130FA
:1046200021F48091F1008093FB028091E8008B7768
:1046300054C080910803813A09F053C080910C0363
:1046400090910D03892B09F04CC08091E800877F81
:104650008093E8008091E80080FFFCCF80910E01FC
:1046600037C0809108038132E1F580910C0390916D
:104670000D03892BB1F58091E800877F8093E800D6
:104680000E94BA2880910A0380930E010E9475222D
:1046900028C080910803813221F58091E800877F4E
:1046A0008093E8000E94BA2880910B038093FA025D
:1046B00018C080910803813AA1F48091E800877FB7
:1046C0008093E8008091E80080FFFCCF8091FA029F
:1046D0008093F1008091E8008E778093E8000E943B
:1046E000BA288091E80083FFE9C180910803909186
:1046F0000903492F50E04A30510508F0DFC1FA01A3
:10470000E258FF4F0C94E329803821F0823809F0F9
:10471000D5C108C08091040390910503992389F0C5
:1047200082600FC080910C038F70873008F0C6C183
:104730008093E9008091EB0085FB882780F9109237
:10474000E9009091E800977F9093E8008093F10052
:104750001092F1007CC1282F2D7F09F0AFC1882372
:1047600019F0823061F0AAC180910A03813009F00A
:10477000A5C1933009F080E0809305032EC080919D
:104780000A0381112AC080910C038F702FEF280F2C
:10479000263008F093C18093E9002091EB0020FFC0
:1047A0001CC0933021F48091EB00806214C0909182
:1047B000EB0090619093EB0021E030E0A90102C092
:1047C000440F551F8A95E2F74093EA001092EA00E1
:1047D0008091EB0088608093EB001092E90080915B
:1047E000E800877F8093E8000E94BA2867C18111A2
:1047F00065C110910A031F778091E3008078812BB7
:104800008093E3008091E800877F8093E8000E9416
:10481000BA288091E80080FFFCCF8091E300806897
:104820008093E300111102C082E001C083E0809315
:10483000060344C18058823008F040C120910A0329
:1048400030910B032C3D53E0350779F583E08A83E3
:104850008AE289834FB7F894DE01139620E03EE0A8
:1048600051E2E32FF0E050935700E49120FF03C0A2
:10487000E295EF703F5FEF708E2F90E0EA3010F01E
:10488000C79601C0C0968D939D932F5F243149F741
:104890004FBF8091E800877F8093E8006AE270E074
:1048A000CE0101960E940E29C0C080910C03909108
:1048B0000D03432F552743305105B1F068F44130C3
:1048C000510509F40AC14230510509F0F7C08BE5E2
:1048D00090E0E7E4F8E057C04132510589F14232F7
:1048E000510509F43CC0EAC0C901992781309105FE
:1048F000B9F070F082309105D9F0039709F0DEC06D
:10490000E4EBF8E0E4918E2F90E0E4EBF8E038C0BF
:10491000E0EFF8E0E4918E2F90E0E0EFF8E030C0B7
:10492000E0EEF8E0E4918E2F90E0E0EEF8E028C0B1
:10493000E2EDF8E0E4918E2F90E0E2EDF8E020C0A7
:104940008330910508F0BAC0880F991FFC01EB5C19
:10495000FE4F0190F081E02D89E090E014C083309B
:10496000910508F0ABC0FC01EE0FFF1FE15DFE4FAB
:104970000190F081E02DDC01A45DBE4F8C9190E0B0
:10498000009709F49BC02091E800277F2093E8005E
:1049900020910E0330910F032817390708F4C9013D
:1049A00040E0009789F120910603222309F43DC0DD
:1049B0002530D9F12091E80023FD37C02091E8008F
:1049C00022FD2FC02091E80020FFEBCF4091F300A3
:1049D0002091F20030E0342B009759F02830310557
:1049E00040F444914093F100319601972F5F3F4F7F
:1049F000F3CF41E02830310509F040E02091E80094
:104A00002E772093E800CDCF4111CDCF0AC0809101
:104A10000603882351F0853041F08091E80083FD42
:104A200004C08091E80082FFF2CF8091E8008B778C
:104A30008093E80043C0803809F040C08091E800CE
:104A4000877F8093E800809107038093F100809135
:104A5000E8008E77C7CE811131C080910A03909112
:104A60000B039927029754F58091E800877F809384
:104A7000E80010910A03109307030E94BA2811114D
:104A800006C08091E30087FD02C081E001C084E0A0
:104A90008093060342E061EC81E00E94D92842E263
:104AA00061EC84E00E94D92842E261EC82E00E943D
:104AB000D92842E260EC83E00E94D9288091E80086
:104AC00083FF10C08091E800877F8093E800809189
:104AD000EB0080628093EB0005C082E190E0E2EAA7
:104AE000F8E051CFAA960FB6F894DEBF0FBECDBF47
:104AF000DF91CF911F9108951F920F920FB60F92E1
:104B000011242F933F934F935F936F937F938F93D2
:104B10009F93AF93BF93CF93DF93EF93FF93C09196
:104B2000E900CF708091EC00D82FD17080FDD0E8E3
:104B30001092E9008091F000877F8093F0007894D4
:104B40000E949E221092E9008091F000886080937C
:104B5000F000CD2BCF70C093E900FF91EF91DF9172
:104B6000CF91BF91AF919F918F917F916F915F9105
:104B70004F913F912F910F900FBE0F901F9018955E
:104B8000E8EDF0E080818E7F80831092E200109249
:104B9000DA001092E100A0EEB0E08C9181608C937D
:104BA00080818F77808319BCA7EDB0E08C918E7FD8
:104BB0008C9380818F7E80831092F9020895CF922A
:104BC000DF92EF92FF920F931F93CF93DF93C8ED85
:104BD000D0E088818F7E8883E7EDF0E0808181607E
:104BE000808384E082BF81E08093F90288818E7F98
:104BF000888302EE10E0F80110821092DA0081EE54
:104C0000C82ED12CF601108288818F778883888105
:104C10008068888388818F7D888319BC1092060301
:104C200010920703109205031092040390EEE92EF0
:104C3000F12CF70180818B7F80838881816088835C
:104C400042E060E080E00E94D928F60180818E7FFA
:104C50008083F80180818160808380818860808387
:104C6000F70180818E7F8083888180618883DF91D6
:104C7000CF911F910F91FF90EF90DF90CF9008950B
:104C80001F920F920FB60F9211242F933F934F93C1
:104C90005F936F937F938F939F93AF93BF93EF93A4
:104CA000FF938091E10082FF09C08091E20082FFC2
:104CB00005C08091E1008B7F8093E1008091DA0054
:104CC00080FF2AC08091D80080FF26C08091DA0042
:104CD0008E7F8093DA008091D90080FF18C080E138
:104CE00089BD82E189BD09B400FEFDCF81E08093DA
:104CF00006038091F90281110FC00E94C0250E9415
:104D0000DF258091E20084608093E20005C019BC39
:104D1000109206031092F9028091E10080FF17C003
:104D20008091E20080FF13C08091E2008E7F80932B
:104D3000E2008091E20080618093E2008091D800DF
:104D400080628093D80019BC85E08093060380912F
:104D5000E10084FF2EC08091E20084FF2AC080E140
:104D600089BD82E189BD09B400FEFDCF8091D800E4
:104D70008F7D8093D8008091E1008F7E8093E10049
:104D80008091E2008F7E8093E2008091E20081605A
:104D90008093E20080910703882311F084E007C02C
:104DA0008091E30087FD02C081E001C083E0809331
:104DB00006038091E10083FF27C08091E20083FF1A
:104DC00023C08091E100877F8093E10082E080939F
:104DD0000603109207038091E1008E7F8093E1002B
:104DE0008091E2008E7F8093E2008091E2008061FA
:104DF0008093E20042E060E080E00E94D928809148
:104E0000F00088608093F000FF91EF91BF91AF9127
:104E10009F918F917F916F915F914F913F912F91D2
:104E20000F900FBE0F901F9018952091E4003091C5
:104E3000E50095E64091EC00842F817040FF23C08F
:104E40008091E80080FD1DC080910603882399F0C1
:104E5000853099F08091EB0085FD11C04091E40010
:104E60005091E5002417350729F3915011F09A016C
:104E7000E1CF84E0089582E0089583E0089581E021
:104E8000089580E008954091E80042FFDDCF089545
:104E9000EF92FF920F931F93CF93DF937C018B01CF
:104EA0000E941527811119C0E70101151105A1F014
:104EB0008091E80085FD0AC08091E8008E7780939C
:104EC000E8000E941527882381F307C08991809309
:104ED000F10001501109E9CF80E0DF91CF911F91DE
:104EE0000F91FF90EF900895882341F08095909165
:104EF000F00289238093F0020C946F1E089588239A
:104F000039F09091F002892B8093F0020C946F1E7F
:104F10000895882339F09091F102892B8093F10252
:104F20000C946F1E0895882321F00E94681E0C9433
:104F30006F1E0895882309F45CC0823869F40E94CA
:104F40002E0681FF56C069E384E692E00E94C71DE9
:104F50000E946F1E69E30EC0833891F40E942E06F2
:104F600080FF47C063E584E692E00E94C71D0E946F
:104F70006F1E63E584E692E00E94BA1D0C946F1EDA
:104F8000843869F40E942E0682FF33C067E484E609
:104F900092E00E94C71D0E946F1E67E4EBCF9CEF5A
:104FA000980F913A10F4682FE5CF90E2980F98305F
:104FB00050F4877091E001C0990F8A95EAF7892F24
:104FC0000E94681EDBCF9BE5980F933020F480E0B1
:104FD00090E00C94180698E5980F973120F480E043
:104FE00090E00C940206803F20F00E94DA080C94B6
:104FF000B0080895CF93882309F49EC0C82F823843
:10500000B1F40E942E0681FD97C069E384E692E028
:105010000E94C71D0E946F1E2FEF81EE94E0215069
:1050200080409040E1F700C0000069E317C083387A
:10503000E1F40E942E0680FD7FC063E584E692E0E5
:105040000E94C71D0E946F1E2FEF81EE94E0215039
:1050500080409040E1F700C0000063E584E692E004
:105060000E94BA1DCF910C946F1E8438B1F40E9437
:105070002E0682FD61C067E484E692E00E94C71DAF
:105080000E946F1E2FEF81EE94E0215080409040EF
:10509000E1F700C0000067E4E1CF8CEF8C0F813AAC
:1050A00080F4E6E6F2E08CE692E02191C217E1F1AD
:1050B0008E179F07D1F76C2F84E692E00E94C71DE0
:1050C000D1CF80E28C0F883068F4C77081E090E027
:1050D00001C0880FCA95EAF79091F102892B80935D
:1050E000F102C0CFEBE5EC0FE33040F4F0E0E55C1B
:1050F000FE4F808190E0CF910C941806E8E5EC0F0C
:10510000E73150F4F0E0EE0FFF1FE25CFE4F8081CC
:105110009181CF910C940206C03F70F08C2F0E94B9
:10512000A109CF910C94B0086C2F84E692E00E9404
:10513000BA1D0E946F1EBFCFCF9108951F93CF93CA
:10514000DF93182F893319F0CAE0D0E002C0C0E520
:10515000D0E0812F0E94FA278FE99FE00197F1F7B5
:1051600000C000002197C1F7812FDF91CF911F91DF
:105170000C949A278091080387FF11C08091E80062
:1051800082FD05C0809106038111F8CF11C0809186
:10519000E8008B770BC080910603882349F080914B
:1051A000E80080FFF8CF8091E8008E778093E800D8
:1051B0000895982F973068F59093E900981739F083
:1051C0007091EC002091ED005091F00003C0242F6D
:1051D000762F50E021FD02C09F5FECCF3091EB00B5
:1051E0003E7F3093EB003091ED003D7F3093ED003A
:1051F0003091EB0031603093EB007093EC00209322
:10520000ED005093F0002091EE0027FDE5CF80E007
:1052100008958F708093E90081E0089520910E0336
:1052200030910F032617370748F06115710539F4DF
:105230002091E8002E772093E80001C0B901FC011D
:1052400020E06115710579F1809106038823F1F161
:105250008530F1F18091E80083FD3CC08091E80049
:1052600082FD2EC08091E80080FFEBCF2091F300FB
:105270008091F20090E0922B6115710551F0883019
:10528000910538F421912093F10061507109019644
:10529000F3CF21E0089709F020E08091E8008E77B5
:1052A0008093E800CECF2111CFCF0AC080910603B2
:1052B000882361F0853061F08091E80083FD0AC0A9
:1052C0008091E80082FFF2CF80E0089582E00895A7
:1052D00083E0089581E00895FB01DC0102C00590A0
:1052E0000D9241505040D8F70895DC01CB01FC01EC
:1052F000F999FECF06C0F2BDE1BDF89A319600B42F
:105300000D9241505040B8F70895F999FECF92BDE3
:1053100081BDF89A992780B50895A8E1B0E042E0F0
:1053200050E00C947729262FF999FECF92BD81BDCC
:10533000F89A019700B4021639F01FBA20BD0FB6D3
:10534000F894FA9AF99A0FBE08950396272F0E94AF
:1053500094290E949329252F0E949429242F0C948C
:1053600094290196272F0E9494290C949329DC01FB
:10537000CB0103C02D910E94C22941505040D0F76B
:105380000895262FF999FECF1FBA92BD81BD20BD89
:105390000FB6F894FA9AF99A0FBE0196089597FB02
:1053A000072E16F4009407D077FD09D00E94F0294B
:1053B00007FC05D03EF4909581959F4F0895709518
:1053C00061957F4F0895EE0FFF1F0590F491E02D3A
:1053D00009946927962769277827872778270895CA
:1053E000AA1BBB1B51E107C0AA1FBB1FA617B7070B
:1053F00010F0A61BB70B881F991F5A95A9F7809527
:105400009095BC01CD010895DC0101C06D93415020
:0A5410005040E0F70895F894FFCF34
:10541A00FF010100A21C001DE11CDD1CD91C01DEDC
:10542A00647D7DDF7848D8303191906667353634AF
:10543A00979496F0F1F4F5F6F7C693924022810715
:10544A0008E5076407590872089208818283E20016
:10545A00E900EA00B500B600B700CD008301CC0030
:10546A008A019201940121022302240225022602C2
:0C547A0027022A02B300B4006F0070008B
:00000001FF
